:020000040000FA
:10000000201E00200901000023010000D50000008F
:1000100000000000000000000000000000000000E0
:1000200000000000000000000000000027010000A8
:100030000000000000000000290100002B0100006A
:10004000511900002D010000F51E0000FD1C0000EC
:10005000091D0000000000000D0F000071020000EB
:10006000AD1E0000C51E0000DD1E0000F91A0000D4
:100070002D010000F51900002D0100002D010000E8
:10008000091F00000D1B00005D190000A5100000F5
:10009000151D00001D1D0000311D0000451D000044
:1000A000591D00006D1D0000000000000000000050
:1000B0000000000000000000000000000000000040
:1000C0000348854600F0A4F800480047994700001F
:1000D000201E00200848704502D1EFF3098009E096
:1000E000EFF308800549064A884201D8904201D8BA
:1000F0008D460020034B1847FDFFFFFF201E002008
:1001000020160020851000000321094802680A43D8
:100110000260084802680A430260074880470748AF
:100120000047FEE7FEE7FEE7FEE7FEE7FEE700002A
:1001300024050040540500400D1E0000C1000000D1
:1001400030B50B46014600202022012409E00D466F
:10015000D5409D4205D31D469540491B25469540F7
:1001600040191546521E002DF1DC30BD70B500243B
:100170002546002801DA01244042002901DA012540
:100180004942FFF7DDFFAC4200D04042002C00D0D6
:10019000494270BD0549064A08685043054A80181F
:1001A000086040087047014908607047DC01002082
:1001B0006D4EC6413930000003460B439B0703D008
:1001C00009E008C9121F08C0042AFAD203E00B781C
:1001D0000370401C491C521EF9D27047D2B201E094
:1001E0000270401C491EFBD270470022F6E710B592
:1001F00013460A4604461946FFF7F0FF204610BD95
:10020000421C0178401C0029FBD1801A7047000075
:10021000064C0125064E05E0E36807CC2B430C3C59
:1002200098471034B442F7D3FFF74EFF98600000B0
:10023000B860000030B58C180278401C13071B0F03
:1002400001D10378401C120906D10278401C03E05A
:1002500005780D70401C491C5B1EF9D101E00B7044
:10026000491C521EFBD1A142E6D3002030BD000044
:10027000FEB5134C0026E0680125124F002810D06F
:1002800001F0BCFE00280BD00120B8606846067063
:10029000E0680190217C68460181A5742168884747
:1002A000FEBD094806600120B8600848066069463E
:1002B0000D7080688880A57468462168EFE70000AB
:1002C000E401002000730040007100400075004010
:1002D000022070477047000030B500230A4CFF250C
:1002E0000021184600F048F80021184600F032F8C6
:1002F0000020190109190D54401C1028FBD35B1C68
:10030000022BEDD330BD0000F60A0020014602208A
:10031000022900D208467047024610B500200B465D
:10032000022A06D203483032C2700146184602F053
:10033000C5FD10BDEC0000200021022806D20449B2
:10034000085C002801D0012100E000210846704728
:10035000E8000020022801D2014A11547047000031
:10036000E80000200021022801D20249095C084669
:1003700070470000EA0000200022022804D202296F
:1003800002D2024A1154012210467047EA000020AE
:1003900000B5FFF7BBFF0022114602280AD2064B28
:1003A0000001C018435CFF2B01D0DAB202E0491C07
:1003B0001029F7D3104600BDF60A0020034600209E
:1003C000022B06D2102A04D21801024BC018815405
:1003D00001207047F60A0020002801D0064B036078
:1003E000002902D004482C300860002A02D00248BC
:1003F000001F106070470000D05F0000F0B50024BF
:100400000669FDB0054621462746002E0FD06869D3
:1004100000280CD0A868542849D00BDC04287DD0D3
:10042000242834D02E287AD051280BD131E0002056
:100430007DB0F0BD552809D057283FD068284FD04F
:100440006F2808D002202883202085E06868FFF705
:100450009FFF014644E079A802F068FC00221146A3
:1004600079A802F075FC0022012179A802F070FC45
:100470000022022179A802F06BFC0022032179A856
:1004800002F066FC79A9304603F068FA54E00021D6
:1004900026E06868FFF73AFF3749085C002801D07A
:1004A000012100E00021304603F06BFA44E0686867
:1004B000FFF72CFF3049891C095C11E0E86800282F
:1004C00012D0401C2D4A686813D0FFF71FFFE9685F
:1004D00010293ED800018918401E095CFF2928D048
:1004E000304603F074FA27E01021304603F092FA08
:1004F00022E0FFF70BFF000180180090C15DFF298B
:100500000ED0301903F063FA2418FF20E130844242
:100510000ADA7F1C102F10D20098EFE721E022E0CA
:10052000301903F062FAEFE7362001246883E443D0
:1005300015E0304603F059FA0446002C0FDBA8689A
:1005400057280CD0E868401C09D0022028833220AC
:1005500002E0022028832A2000246883E443204606
:1005600066E707A100E007A101A802F0A7FC01A926
:10057000304603F010FADFE7E8000020F60A00201A
:100580006F6E00006F666600022801D2012070477E
:1005900000207047F0B5FFB00446FF207D90FF209B
:1005A000F1300159204600266A46103002F024FA44
:1005B0002546FF350227C135002802DAEF862520BF
:1005C00007E0A068572808D0E168491C05D0EF86ED
:1005D0003220288700207FB0F0BD2146FF31F9315D
:1005E0007B91891E7A9151285AD00EDC4B283AD043
:1005F00006DC042837D0242835D02E2813D132E049
:100600004D2830D04F280ED12DE067282BD006DCA6
:10061000542853D0552809D0572804D123E06828FE
:1006200021D06F281FD0EF8620201EE00A46092126
:1006300068467B9B01F07CFC06462046FF30E1309B
:100640007C90002E17D0007D002810D010280ED8E6
:10065000062807D00199012909D8401EC2B2C9B2A3
:1006600060681AE00026EF862820288735E00026FB
:10067000EF862520F9E7002168467B9B7A9A01F0F6
:1006800057FC060029D07C98007D0028EFD0102868
:10069000EDD8401EC2B260687D99FFF78FFE1CE066
:1006A0000A46012168467B9B01F042FC060014D0FB
:1006B000684601796068FFF74DFE0EE00A460921A1
:1006C00068467B9B01F034FC060006D001980228A6
:1006D000CDD2C1B26068FFF74FFE30467BE7CAB2A9
:1006E0004240080A11024840D100484011034840E6
:1006F000110948401107090F4840C901484080B21C
:10070000704741404A004A4088004240C800424089
:10071000080142404801424088014240C80142402D
:10072000FE20D1051040C90F484070470120704796
:1007300002488168491C816070470000FC0000206D
:100740000148406870470000FC00002070B501259A
:100750000E4CAD0204E06068002800D080472434CD
:100760002088A842F7D30021084602F0D1FC0749AF
:10077000074A0C394868904203D367204860FFF766
:1007800012FD04A10A4802F099FB70BD0801002087
:10079000FFFF3F0073746D33322D64657369676EBC
:1007A0002D6368616C6C656E67652D3130330000B8
:1007B000180B00200148406870470000FC00002032
:1007C00070B500250126074CB60205E0A068002898
:1007D00001D08047451924342088B042F6D32846FA
:1007E00070BD000008010020F7B505460026304620
:1007F000002D1CD00127BF020E4C6D1E14E0A16815
:10080000002910D0E268002A0DD02D1A88478542B1
:1008100009D2019821880160E16828468847029939
:100820000126086003E024342188B942E7D330462A
:10083000FEBD00000801002010B5064B0C46024624
:10084000596800208A4203D10349204602F0F4FA95
:1008500010BD0000FC000020180B002070B51546EC
:100860000E46002400F00CF8002806D04269002A49
:1008700003D02946304690470446204670BD00000C
:10088000034601220548920202E0994204D0243036
:1008900001889142F9D30020704700000801002030
:1008A00010B50146002010609060106114460846A3
:1008B000FFF7E6FF002808D0036A002B05D0224688
:1008C000103221460831204698472068002801D080
:1008D00004F04DFC6060A068002801D004F047FCE3
:1008E000E0602069002801D004F041FC606110BD87
:1008F000002801D0064B0360002902D00448543080
:100900000860002A02D002480838106070470000D2
:1009100010600000F8B504460020C0430090208815
:10092000FFF7AEFF01261F27054600280CD02969D6
:10093000002909D060688847002805D0214628464C
:1009400001F0F4F80090F8BD268367830098F8BDA5
:10095000F0B5FFB0002405460194029400692646D4
:10096000002812D0696900290FD00090A8684C288F
:100970007ED01FDC3A2841D00FDC1C283CD007DC9D
:100980000B2876D00C2833D146E000207FB0F0BD94
:100990001E286FD02C282BD13BE040286BD004DCE4
:1009A0003E2869D03F2823D1DCE046282FD04928B3
:1009B0001ED1CEE06E49782826D00CDC622834D0D7
:1009C00004DC602844D0612812D132E06B287CD04E
:1009D00070280DD114E0792814D08B2827D09B28BB
:1009E00074D04B21C901884202D104F0C1FDB2E0AC
:1009F0000220288320209CE05EA10EE063A10CE091
:100A000009789FE062A108E0FF210531A6E067A117
:100A100003E06A48016800E069A103A802F04EFA09
:100A200003A9009802F0B7FF4DE0012196E00E21E6
:100A300094E07BA802F07AF9F0B201F05DFC024686
:100A4000F1B27BA802F084F9761C292EF4D323E0BE
:100A50007BA802F06BF9F1B200227BA802F078F9D2
:100A6000761C372EF7D3424C01260C34B60210E028
:100A700017E06BE050E078E060E0A068002807D065
:100A80008047002804D0217801227BA802F060F979
:100A900024342088B042F0D37BA9009802F05EFF96
:100AA00011E0FFF78DFE0746E86800280FD0411CD3
:100AB0000FD002AA01A9FFF797FE002836D06B4697
:100AC00007CB02F099FF044624E03AE045E03946BE
:100AD00044E001261CE002AA01A93046FFF784FE8B
:100AE000002810D00098029A0019019902F084FFA2
:100AF00024182118FF20E130814208DB3620012430
:100B00006883E44318E005202883002011E0761C68
:100B1000BE42E0D9002C0FDBA8684C280CD0E86856
:100B2000401C09D002202883322002E002202883C2
:100B30002A2000246883E443204627E7FF21E1318F
:100B40000CE00321009802F042FFBCE701F012FC28
:100B500001E001F0CBFB014600E08968009802F05B
:100B600059FFB0E702F022FEF5E702F025FEF2E7BA
:100B7000FC0000204241436E657420446576656C3C
:100B80006F706D656E74204B6974000055534100A1
:100B90004241436E657420537461636B206174201D
:100BA000536F75726365466F7267650062646B2D83
:100BB00073746D33322D6D7374700000000000206B
:100BC000312E300070B5044600250BA1001D02F047
:100BD00001F9002808D00C49207848700021084607
:100BE00002F096FA012505E0FF340420C134A08408
:100BF0001A20E084284670BD73746D33322D63680B
:100C0000616C6C656E676500FC000020044A012180
:100C1000904202D8034A506000E000210846704725
:100C2000FFFF3F00FC00002070B505460146002490
:100C3000064802F059F9002806D12946034802F077
:100C4000FBF80446FFF774FD204670BD180B00202A
:100C500003494968814201D1012070470020704753
:100C6000FC000020F7B5FAB0002617460096FFF703
:100C7000A7FD0546012426E001AA69462046FFF7A4
:100C8000B3FD00281ED0009880B2FFF7F9FD0028C0
:100C900018D04269002A15D002A90198904700286F
:100CA00010D002A97A9802F01FF900280AD07B9888
:100CB0000126002801D000990160002F05D001987D
:100CC000386002E0641CAC42D6D930467DB0F0BD3D
:100CD000FF2005307047F8B50546002000902888B1
:100CE000FFF7CEFD2C46FF340127C134064600280D
:100CF00013D03169002910D06868884700280CD0CB
:100D0000F169002903D0284688470090F8BD0220E9
:100D1000E086282020870098F8BDE7861F20F9E7A5
:100D2000F0B50646FF308130016FFBB0304600273A
:100D30006A46103001F060FE3446FF340225C134AB
:100D4000002802DAE586252007E0B0684C2808D0A4
:100D5000F168491C05D0E5863220208700207BB051
:100D6000F0BD09214F280AD018DC402854D00CDCF3
:100D70002C2804D004DC0C2801D01E282FD18FE0B1
:100D80003E2815D03F282AD13BE0462810D04B28DA
:100D900028D04C280CD04D2821D14AE079287FD08A
:100DA0000CDC62287CD004DC602879D0612816D164
:100DB00076E06B2874D0782811D171E08B286FD041
:100DC00098286DD09B286BD04B22D201904206D13F
:100DD00068468078022854D0E58621875DE0E58664
:100DE000202059E0684680780C28F5D16846808834
:100DF000082803D10298FFF709FF49E0E58625207E
:100E00004AE0684680780228E6D10198FF28F5D8A4
:100E1000C0B202F06FFD3DE0684680780228DBD169
:100E20000198401E7E28E9D80198C0B202F06AFD00
:100E300030E0684680780728CED101A802F04EF84D
:100E40000600DBD0184801F0F0FFB04216D96E461C
:100E500001A802F004F806280DD200221146301D28
:100E6000FFF700FF002802D0E586302014E0301D97
:100E7000FFF7DAFE0EE0E58629200DE0E586142076
:100E80000AE0E121019849028842B7D804F076FBD4
:100E90000028B3D0012700E0208738465FE7FFE74E
:100EA000E5862820F8E70000180B0020002802D073
:100EB00001684068081A704700B5002805D0FFF7A0
:100EC000F5FF002801D0002000BD012000BD10B5B5
:100ED00004460022FFF7F0FF002808D1E1686068AF
:100EE000FFF72EF9A068425C6068401C6060104605
:100EF00010BD002808D0002906D0002A04D0002305
:100F000003604360C260816070470000F0B5002458
:100F1000FF268BB00136012527460694304604F0A3
:100F2000A5F8002807D054484068284203D030462E
:100F300004F094F82C43361D6D007F1CB6B2042FCC
:100F4000ECD3FF257D35284604F090F8002809D021
:100F5000284604F083F86807044306AA012100200C
:100F600004F068F8454D200714D0012700262742D9
:100F70000CD04348B200111808690969C004C00EBA
:100F80008903AA58890F002A00D090477F00761C59
:100F9000042EECD3002C6DDA00200890401E63E094
:100FA000281940300778B906890E00910021415672
:100FB000491C49D009A9009803F0A8FD002843D096
:100FC000B8090190009801F0FDFE80002F580198AB
:100FD000002F02D0032802D00DE0032834D100985E
:100FE00008ABC20841079446985C490F01228A4029
:100FF0001043624698540098052109078000401864
:10100000072109024018006806A98003800F02909A
:10101000009803F07BFD0028029802D0022802D03D
:1010200012E0032810D10198032808D10298022861
:101030001ED00221009803F0DCFF761CF6B2002FD0
:1010400002D001990098B847641C042CA8D3002E44
:1010500010D06A460121002003F0ECFF06990098A9
:10106000884207D00690089800263446099097E7F2
:101070000321DFE70BB0F0BD006300400C0200204D
:101080000065004000F000F8BFF34F8F04490348AB
:10109000C860BFF34F8F00BFFDE700000400FA05F2
:1010A00000ED00E001480068004700001400002047
:1010B000F0B5F84E0025377885B02C46FF2F00D1CB
:1010C000B47271780191F079491C401CFFF738F82F
:1010D000C8B201990090781C491CFFF731F8C8B2DA
:1010E00002900199B0790190401C491CFFF728F843
:1010F000C8B20490E748B17A24300068082203900F
:1011000090430B0000F02AFF0906338AB8E3F5F498
:10111000F3F2F100FF2F07D0B771F771322131627E
:10112000DC49243108606BE102F076F93078FF2861
:1011300039D001F06FFBB071FF2830780BD0F0711F
:1011400001203062D34834732430F46102680821EE
:101150008A430260EBE0B071F07132203062CD481A
:10116000347324300168082211430160C2E0FF207B
:10117000F53004F0C5FA00280DD0C6483473243089
:101180000168022291434908490004229143016009
:101190000620B07295E0BF4F24373868C10703D0EE
:1011A000400840003860BFE18107FCD5717B0B002F
:1011B00000F0D4FE0705112C232C1B172C00F17A0C
:1011C000FF2923D00221884308229043747138609C
:1011D000B17201251DE0009400233278B17B02201A
:1011E00012E010210843386010E0102108433860F5
:1011F000F07AFF280AD00820F0E0308D80B200900D
:101200003278B17B0420F36A00F0CEFAB07A082875
:10121000C9D0396802208143396085E19E4800F0D9
:1012200013FD002802D0B078707133E09A4800F0C6
:1012300033FD04460078002801D0052700E006278A
:10124000608800906178231D3278384600F0ACFA4F
:101250007079401C70710320032F04D0052F04D136
:101260006178FF2901D0B07201E00420FBE7002182
:10127000894800F022FD57E1FF20053004F040FAD4
:101280000028D0D1834824300168CA0704D0490817
:101290004900016004207CE78A0784D5F27A33781C
:1012A0009A4206D1727B042A05D0062A0BD0072A5F
:1012B00001D0012100E00421B172026802218A43B9
:1012C0000260012530E1102211430160F3E77079DB
:1012D000B178884201D202205BE7039800070BD463
:1012E0000198B84208D1029945E076E0E6E089E04D
:1012F0005FE049E0072071E0306A312819D2039895
:1013000001076448006A401C002906DA029A019924
:10131000914202D074713062DDE7306200233A46B8
:1013200000941846019900F03FFAF46120E005208E
:1013300054E00199009888421CD1039800070DD50C
:101340000499F17100233A460120009400F02CFA30
:101350003078B0710120F4613062CBE7F77100237F
:101360003A461846009400F01FFA0120F4613062FA
:101370003473DCE70146F17100233A460120009402
:1013800000F012FAF461B5E73C2004F0B9F9002846
:1013900033D0F069002801D0049922E00120F061E7
:1013A000009400233278B179184600F0FDF93473C7
:1013B000BAE038460A214843FF30F53004F0A0F97E
:1013C00000281AD030780A214843FF30FF3004F05B
:1013D00097F9002804D004F09BF90120B072A3E033
:1013E0000299F171009400233278012000F0DCF9B9
:1013F0003078B071F46134627CE7307B042813D913
:101400000120C6E60399890721D5F17AB94202D1B4
:10141000717B022909D00120B07205461D480221C6
:10142000243002688A4302607EE01A490023243196
:101430000860B17BB17134733A461846009400F0ED
:10144000B3F93078F07134620520F4616AE03C2031
:1014500004F056F9002804D10E4824300078C00763
:1014600062D00C4F24373868010704D5022074710C
:10147000B07201251CE0B179327891420ED03473FC
:1014800000231846009400F08FF90520F461B07233
:101490000EE0000074010020281300200099914202
:1014A00008D0F17100230120009400F07DF9F4616F
:1014B000386875E6082108433860D7E71C4800F013
:1014C000EBFB070021D07978788801910090308D6E
:1014D0003B1D81B2B27BF06A02F09EF8002814D066
:1014E0003878002801D0052000E006207988009196
:1014F00079783B1D327800F057F90120B0720D4821
:10150000022102688A430260B1E6C82004F0F8F8BC
:10151000384309D0009400233278B17B072000F0D3
:1015200043F90120B07279E7284605B0F0BD00000C
:101530002813002098010020F8B5994C0026684631
:101540000670607A254601272435030000F006FD69
:101550000504224CD6D6C70004F0C4F8002807D0F2
:1015600004F0D6F8207BFF2801D2401C2073F8BD80
:10157000684604F03BF80028F9D004F0C9F8207B55
:10158000FF2801D2401C2073684600785528EED110
:101590006772F8BD1E2004F0B3F800280AD104F0E9
:1015A000A1F8002807D004F0B3F8207BFF2801D26F
:1015B000401C207393E0684604F018F80028E8D037
:1015C00004F0A6F8207BFF2801D2401C2073684657
:1015D0000078FF2802D05528DAD080E06682FF200C
:1015E000207102206072F8BD1E2004F089F80028E6
:1015F00002D02868384371E004F074F8002870D1F4
:10160000684603F0F3FF0028EDD004F081F8207B5A
:10161000FF2801D2401C2073608A00281BD00128BB
:1016200024D002282DD0032837D0042841D0052803
:10163000DFD1684621790078FFF763F820715528DB
:10164000D7D1A06A002841D0E17A2278914249D0CE
:10165000FF2947D050E0684621790078FFF751F81C
:1016600020716846007860736782F8BD684621790A
:101670000078FFF746F8207168460078E072022093
:1016800009E0684621790078FFF73BF82071684649
:101690000078A07303206082F8BD68462179007845
:1016A000FFF72FF82071684600780002A06204203E
:1016B000F1E7684621790078FFF723F82071684642
:1016C0000078A16A0818A0620520E4E7E07A217892
:1016D000884261D0FF285FD05BE0084328606672D3
:1016E000F8BD14E0A18A884206D803206072002069
:1016F0006682C0432082F3E70420F7E71E2003F050
:10170000FFFF002894D103F0EDFF002808D003F07C
:10171000FFFF207BFF2800D36BE7401C207368E7A6
:10172000684603F063FF0028DAD003F0F1FF207B66
:10173000FF2801D2401C2073618AA06A81420FD227
:101740006846218A0078FEF7CAFF2082608AA18A53
:10175000884203D26946E26A09781154401C9AE72C
:10176000814207D16846218A0078FEF7B8FF2082BF
:10177000608AF3E7401C8142CED16846218A007816
:10178000FEF7ADFF074920828842C5D1607A032861
:1017900002D004212868A0E7022128689DE7000004
:1017A00074010020B8F00000FFB581B0244F00257F
:1017B00024480A9E00F00EFA04003ED05520207105
:1017C000FF2161710198A071FEF79BFF014602980D
:1017D000E071FEF796FF014603982072FEF791FF35
:1017E0000146300A6072FEF78CFFF2B20146A27227
:1017F0001046FEF786FFC043E07208202080002ECE
:101800000CD116E004983946405DFEF768FF0746A4
:1018100004986119405D6D1C0873ADB2B542F1D3F7
:10182000F843A1190873000A487320888019801CA6
:1018300020802146034800F0E0F905B0F0BD00002B
:10184000FFFF0000000F002070B5294C0025E07854
:10185000002806D001280FD002281DD003283ED131
:101860002EE0244800F0F0F900283AD1214800F099
:1018700013FAA061012021E003F052FF002830D0CC
:10188000012003F031FFA0694580001D285C03F0B2
:10189000C9FE0220E070DAE703F0D2FE002820D073
:1018A000A0694188491C89B241800288914204D2D2
:1018B000001D085C03F0B6FEC9E70320E07013E0EA
:1018C00003F0BEFE00280CD003F0C2FE002808D0B2
:1018D000002003F009FF0021064800F0EEF9E57052
:1018E00004E0E078002801D0012070BD002070BD28
:1018F00074010020000F002000B503484168491C16
:10190000416003F06FFF00BDD00100208307FF227C
:10191000DB0E9A408907090E994000280BDA000770
:10192000000F0838830808489B001818C3699343C0
:101930000B43C3617047830804489B001B18186859
:10194000904308431860704700ED00E000E400E0B9
:1019500010B503F003F903F05BF910BDFEB52148A3
:10196000FF2102680131204F204C0025204E002A23
:101970000CD06268D207D20F08D005606A46118089
:10198000F86890707268019900989047FF23154A93
:101990000533121D1068002811D06068022108422A
:1019A0000DD0156068460380B96941800E4840300B
:1019B0008168684681807268019900989047FF208D
:1019C0000849093008310A68002A0AD063680422ED
:1019D000134206D00D60694608807268019900982C
:1019E0009047FEBD00210140002501400023014039
:1019F0002400002008B50D4802680021002A13D0F9
:101A00000B4A9268D207D20F0ED001600948806855
:101A100069460870084803F049FB074803F030FBAB
:101A2000002801D003F008F908BD000000D10040F3
:101A300000D3004000D50040985F0000FFB5164677
:101A40008BB01C462B48DA68996803F0C0FC054649
:101A50000346009627490C9A0B9802F0B9FE3627E8
:101A6000002842D00121684681841F21C184218839
:101A7000818160680490A0680590E06806901D4828
:101A80000790FF20E130089003A8FEF743FF0028ED
:101A90001BDA811C14D0C11C12D06846C28C818C08
:101AA000144803F0A9FC01900C98009642191149C2
:101AB000019B0B9802F08CFE002816D0019812E0D2
:101AC0006946C98C61820FB0F0BD0C9949190A189A
:101AD000921CB24209DA0B9A8B1802460549184645
:101AE00003F0A6FC01902818EDE701206782C043AF
:101AF000E9E700009804002010B503220021024805
:101B000003F0A4F810BD000000B0004010B5064975
:101B10000020086048608860C86003494039086058
:101B2000486003F063FF10BD4011014070B50646E8
:101B300000200D69C043F8B00C46002D12D0616939
:101B400000290FD0A368022132224B2B0CD04D2B41
:101B50001BD04F2B2BD0B169002901D020468847DC
:101B600078B070BD0020FBE7E3685B1C02D02183E6
:101B70006283F5E72188082902D111484068606036
:101B80002846626801F038FFEAE7E3685B1CEED1A3
:101B90000CA1684601F092F97269002A02D06946E8
:101BA000606890476946284601F0F5FED8E7E3688B
:101BB0005B1CDCD12188284601F009FFD0E700003A
:101BC000FC00002000000000002802D0C16800696D
:101BD000081A704770B50023044600280BD000F0A7
:101BE0003EF8002807D12568A168E068FEF7A8FA4A
:101BF000606841434B19184670BDF8B500250F4683
:101C00000446002814D000F02AF8002810D12668D5
:101C1000A168E068FEF794FA606841438819B84209
:101C200006D1E068401CE060204600F003F8012582
:101C30002846F8BD00B5020005D0FFF7C5FF516981
:101C4000814200D2506100BD00B5002805D0FFF7E9
:101C5000BBFF002801D0002000BD012000BD00B561
:101C6000020004D0FFF7B0FF9168884201D1012043
:101C700000BD002000BDF0B5002600280AD00024D9
:101C8000002B07D05F1E3B4204D1C46004610EC02C
:101C9000846001263046F0BD70B504460022FFF78F
:101CA000D3FF002807D12568A1682069FEF748FA0C
:101CB000606841434A19104670BD70B50D46044630
:101CC0000022FFF7C1FF002815D12668A16820690E
:101CD000FEF736FA606841438919002D07D00020CD
:101CE00002E00A5C2A54401C62688242F9D82069EA
:101CF000401C20610122104670BD000001480068B0
:101D00000047000004000020014800680047000070
:101D10000C00002010B503F0F9FD10BD10B503480C
:101D20000188012002F0E0FF10BD000098020020B1
:101D300010B503484188022002F0D6FF10BD000014
:101D40009802002010B503488188032002F0CCFFE0
:101D500010BD00009802002010B50348C18804207F
:101D600002F0C2FF10BD00009802002010B5034829
:101D70000189052002F0B8FF10BD00009802002084
:101D800010B588B0044605AA694602F022FB034656
:101D9000224605A9684601F06FFD08B010BD00009D
:101DA000FFB5FFB08AB0064614460D4684A801F080
:101DB000CFFC01F037F9002823D07CA801F0B6FC55
:101DC0000022114681A802F0C9FD81AB84AA7CA93A
:101DD0000D4802F0D2FD07460821684601800196B1
:101DE0000581039404A88C9901F026F806486946F9
:101DF000C01902F015FB3B18034A81A97CA801F029
:101E00003BFD7FB00EB0F0BD7806002010B502F0AB
:101E100047FB002805D01F491D484860C8131E49CC
:101E200088611E48018CC9B201290BD1828C12072E
:101E300008D1028D1206120F042A03D1828D1206D8
:101E4000120F0AD0012921D1818C09071ED1018DE1
:101E50000906090F0A2904D007E0114A01219160FF
:101E6000F5E7828D1206120F05D00D290ED1808D57
:101E70000006000F0AD10B480168012904D00A4965
:101E8000016001680129FCD1C021416110BD000041
:101E9000DFFF07C000050040006C0040C00F00F0ED
:101EA0000006004000EC06407593000010B50422C7
:101EB0000249034802F0D3FA10BD0000A40200203A
:101EC0000080004010B504220249034802F0C7FA1E
:101ED00010BD0000B00200200090004010B50422A8
:101EE0000249034802F0BBFA10BD0000BC0200200A
:101EF00000A0004010B50249024803F03DFE10BDAD
:101F0000C80200200020004006484068C107C90FF1
:101F10000020002904D004490860044840680047B4
:101F20007047000000030140000101403400002020
:101F300010B50446A47801208C4204D00221002070
:101F400011800921198010BD10B5024A024900F024
:101F500021F810BDDD3C0000E001002030B47446E3
:101F6000641E2578641CAB4200D21D46635D5B0095
:101F7000E31830BC184702E008C8121F08C1002A45
:101F8000FAD170477047002001E001C1121F002AFA
:101F9000FBD17047F8B516460F460446002503E00E
:101FA0003946B047641C6D1C20780028F8D12846BB
:101FB000F8BD014600B5333900200B00FFF7CEFF16
:101FC000050406080A0C0500012000BD022000BD22
:101FD000032000BD042000BD402000BD10B500243A
:101FE000002808D0002B01D0712300E0702303707B
:101FF000417082700324204610BD000070B5144962
:102000000020124B0860134908608C681248427C1B
:10201000C5685600521CAC53D2B24274047CA24232
:1020200012D2846800226468002C0AD001228460E5
:102030002068486001200860002A00D01860002055
:1020400070BD44688460F3E7012070BD00700040FB
:102050000071004000750040E4010020F8B504461E
:1020600000781E460007C00F107020781546400704
:10207000C00F507020780F468007C00F90706078B6
:1020800001F0E4F86860607801F0C4F8A860A07816
:10209000287329780320002904D0E0786873207918
:1020A000A8730520215C3170401C069922180A6033
:1020B000079A391A1180F8BDF0B5074693B0002091
:1020C0000C4609900A900B900C900390694604907E
:1020D0000872079088820876164608901090119032
:1020E000002C32D021787F480A117F4D1300FFF772
:1020F00035FF08052E4E6E2CA8E6EF2C05A907A883
:102100000191009002AB09AA31462046FFF7A6FFD5
:102110006846047A00F07EFF002803D0112C01D01D
:10212000142C12D16846007A1E280BD281006D480B
:10213000A4384458002C05D06846818A09AB3A4639
:102140000798CDE06C68002CF6D113B0F0BD65782F
:1021500068460572A41CB61E0794868200F05AFFDA
:102160000028F2D100F068FF002801D0082DECD142
:102170006846007A0B28E8D281005A482C38435828
:10218000002BE2D06846818A3A4607989DE0627843
:10219000A1786B4619720B00FFF7E0FE1D111111BB
:1021A0001010111010111110111010101111111028
:1021B000111110111010111011111000C5E7890034
:1021C0004358002BC1D0114638469847BDE7090750
:1021D000CA0F69460A7321784907CB0F69464B73CA
:1021E00063788B730221002A05D0A2786946CA73EE
:1021F000E2780A740421625C491C64186B461A7206
:10220000711A89B207949982D51E2B00FFF7A6FE9A
:102210001B10100F10100F0F100F1010100F0F0FBA
:10222000100F0F100F10100F100F0F100F008CE772
:1022300092008558002D88D003AB3A462046A84727
:1022400083E7A0786678694603250872122806D1CC
:10225000E01C002100F0C8FF002800D00425601910
:1022600008AA06A901F04FF84519601911AA0899A2
:1022700000F085FF4519601908AA06A901F043F886
:102280004519601910AA089900F079FF6946097A82
:102290004019122903D12018002100F07CFF684664
:1022A000007A1E2892D281000E4878304458002CC3
:1022B0008CD01098314683B2119882B20FE0EB684F
:1022C0006178A278002BB2D0384698473DE7FFE707
:1022D000CB076178A278AC68DB0F002CA7D038461A
:1022E000A04732E7A80300207400002001480078CE
:1022F0007047000074000020002110B50A4629280C
:102300001BD20F4B5C5C844204D188000D490DE068
:10231000012212E0491C1E29F4DB094B00211E3367
:102320005C5C844206D18800064978310858002850
:10233000EED102E0491C0B29F2DB104610BD000073
:1023400084000020040300201E2802D2014A8000DD
:1023500011507047040300200B2802D2014A80006C
:10236000115070477C03002001494860704700000D
:10237000740000200148408870470000740000206D
:10238000BFF34F8F04490348C860BFF34F8F00BFAE
:10239000FDE700000400FA0500ED00E00EB50021A5
:1023A000029000916A4601910148FFF7E9FF0EBDD6
:1023B0000140000010B58268C368934203D001F069
:1023C0007AFC002010BD052010BD002906D0002A8F
:1023D00002D0531E134203D0092070470E207047CD
:1023E0000160838000218160C1600846704710B59C
:1023F0008268C3689A1A83889A4203D801F065FC00
:10240000002010BD042010BD094B5B68002B07D0D5
:10241000002A07D0002805D00068037C002B03D0D9
:1024200008207047072070474174426100207047C0
:1024300050000020FFB507469007002581B01E46DA
:102440001446002825D1002C23D003F07FF9304614
:10245000114EF06030461030057045700299817061
:1024600044607560357001240C4875702405046063
:1024700003211420FFF74AFA09480460094CA760B9
:1024800003211120FFF742FA6068B060002005B018
:10249000F0BD0720FBE700004000002080E200E0E4
:1024A00000E100E000150140FEB51D4B5B68002B0C
:1024B0002DD000282BD0052901D20720FEBD43696D
:1024C000002B24D0437C012B23D000270446002579
:1024D00016462846019100F09FF8684603F0E0FB9D
:1024E000002818D0012101700E49446049688160BC
:1024F000019907614661C1606846094900784870E2
:10250000002000F08DF803F043FA2846FEBD0820B5
:10251000FEBD0F46DAE70425002000F081F8F4E75D
:102520005000002000150140F0B5274E89B01F462D
:102530000D00044672601CD0A888296882B2234826
:10254000FFF743FF002815D1A889A96882B21F4868
:102550001030FFF73AFF00280CD120221C496846B2
:10256000FDF72AFE60690690207C002804D0012136
:1025700003E0072009B0F0BD002168460175077728
:10258000607C002800D00E2069464875E068029003
:10259000A068039020680190606800900A480D4A86
:1025A000083002F0B1FB0028E4D1B0702068401C74
:1025B000E0D00548083002F015FC03490122491C0F
:1025C000C81D02F0E1FBD5E760000020E402002016
:1025D000AC5F0000D15A000010B501460C48FFF76F
:1025E00006FF040012D10B4802F0C6FC00280DD1F2
:1025F000084907480839FFF7DDFE002806D10549DC
:1026000001220839034802F057FC0446204610BD59
:10261000F40200206800002000B500F005F800BDBD
:1026200000B500F009F800BD72B602480168491C07
:10263000016070477000002003490868401E086070
:1026400000D162B67047000070000020F8B5074660
:1026500008680C460526411C01253602002906D0D3
:102660002946814019488160206802F0AEFC60680C
:10267000411C02D0002102F09FFC3968A069891931
:102680004862607D217D3A6808439119C8663868C0
:1026900006CC80194261C160207B083C012814D11E
:1026A000A068411C02D0002102F086FCE068411CB9
:1026B00005D0854005488560E06802F086FC3A68F0
:1026C000E1689219A06891601061F8BD00050050A2
:1026D0000148007870470000D800002010B5FDF7D1
:1026E00059FD6021FDF742FD2031C8B20349044A7B
:1026F00008700A2358438018888010BDD800002035
:10270000F40600000149087070470000D80000205E
:10271000802804D2024902230A5C1A430A547047F3
:10272000720800200148807870470000D80000201F
:102730000149887070470000D800002010B50024BF
:102740002346204600F032F8002801D05B1CDBB2A3
:10275000641CE4B2802CF4D3184610BD70B500237D
:1027600006461C46FF25184600F020F8002805D034
:10277000B44201D11D4605E0641CE4B25B1CDBB22F
:10278000802BF0D3284670BD70B5FF25FFF7D6FF2C
:10279000040008D0FDF7FEFC2146FDF7E7FCC8B2B7
:1027A000FFF7DCFF0546284670BD0000014600200B
:1027B00080290AD2054A515CCA0706D08A0704D488
:1027C0000A0702D4490700D401207047720800208C
:1027D00070B50020FB230D49FD240A5C1A402240FD
:1027E000520852000A54202802D208252A4301E048
:1027F000F7252A400A54401CC0B28028EDD3FFF7C9
:102800006DFF03490020487070BD00007208002071
:10281000D80000200146491C10B50022FF204906BF
:10282000074B490E5C5C640701D5084610BD491C86
:102830004906521C490ED2B2802AF3D310BD0000C3
:10284000720800200148407870470000D80000203E
:1028500070B5044680280ED2074D0126285DC007BA
:10286000002805D0FFF76AFF002801D00348467012
:10287000285D3043285570BD72080020D800002024
:102880000148808870470000D8000020802804D2CA
:10289000024904230A5C1A430A5470477208002054
:1028A000024600B51020982A47D01ADC352A3CD0C1
:1028B0000ADC022A28D0262A23D101292FD0022976
:1028C0001FD003291DD11BE0662A2ED0842A18D1DF
:1028D000002924D0012924D0022911D0032910D1A4
:1028E0001DE0D32A24D0D42A03D0D62A01D0DA2A54
:1028F00007D1002904D0012902D0022901D101E029
:10290000022000BD042000BD0B00FFF727FB0908D3
:10291000080A070607070C0C0600F4E7F0E70C208E
:1029200000BD092000BD012000BD0029FCD1F6E753
:102930000029F4D00129F7D1F1E70B00FFF70EFBD6
:102940000507070605040700DCE7D9E7EBE7EBE737
:10295000F7B584B0002769460F70054601970078E7
:102960004007400F062844D1284601AA00F0CBFCBE
:1029700004466846007801260290285D4107490F09
:1029800006290BD0C143490714D0000705981ED56E
:10299000011B2819069A00F076F81CE0281901AAF4
:1029A000694600F0B0FC69460978029A914212D15A
:1029B000761C0AE0281901AA694600F0A4FC6946C1
:1029C0000A7802998A4206D1761EF6B203E0011B0C
:1029D000281900F03DF82418002E02D0002803DD4D
:1029E0003F180598844202D90027FF4301E0002EDA
:1029F000C3D1384607B0F0BDFEB50746002568468E
:102A0000057014462E460195002F1FD0002C1DD0B6
:102A1000387800071AD4267001AA6946384600F0B3
:102A200072FC00280FD0054668460178A17078191D
:102A30002346019A00F04CF8A178102901D02D18F6
:102A400001E00025ED43FF34813466662846FEBD73
:102A50007CB5002469460C7005460194002810D00E
:102A6000287800070DD401AA284600F04CFC002865
:102A700007D00446694628190978019A00F076F8CB
:102A8000241820467CBD7CB5002469460C7116468E
:102A900005460094002819D02878000716D50A4664
:102AA00001A9284600F02FFC00280FD004466846F4
:102AB00001793046FFF7F4FE0146102804D22819A8
:102AC000009A00F053F800E00098241820467CBDDE
:102AD000FEB500251C4617460E4600283AD0002CAD
:102AE00038D0072E1BD006DC012E09D0022E0CD0C8
:102AF000042E2FD10EE0092E16D00C2E2AD119E06B
:102B0000104600F027FB207124E0221D394600F01A
:102B100035FC0DE0221D394600F0DAFB08E0221DED
:102B2000394600F01DFB03E0221D394600F027FB6B
:102B300005460DE000216A461180019101AB39463E
:102B400000F0ADFB05466A461088A0800198A060A1
:102B5000002D09D1002E07D0012E05D0062E03D05E
:102B6000002C01D01020A0702846FEBD034600B501
:102B70000020002B0BD00B00FFF7F0F90D0909081E
:102B8000080808080808080808080900104600BDD9
:102B900070B504460020049D002C0DD050202070FC
:102BA0006170A270E01C194600F011FFC61CA0194C
:102BB000294600F00CFF801970BD70B500228842D4
:102BC0002DD004890B899C4223D1837A8D7AAB4224
:102BD0001FD1072B08D9072385188E18ED7AF67AAE
:102BE000B54216D1521CD2B29A42F5D3002C16D15E
:102BF00003780A7893420CD1072B02D907230022CD
:102C000001E0002209E084188D1864786D78AC42E8
:102C100001D0002070BD521CD2B29A42F3D30120E1
:102C200070BD000010B5FF2000F052FE7F2000F0C4
:102C300069FE002000F09EFD0020FDF787FD13488F
:102C4000FFF792FB12490820FFF786FB1149072086
:102C5000FFF782FB10490C20FFF776FB0F490E208F
:102C6000FFF772FB0E491420FFF76EFB0D490F2092
:102C7000FFF76AFB0C491120FFF766FB01210B48A7
:102C800002F03DFE0A48FFF77BF810BDF541000059
:102C9000BD4200003D420000B93D0000B53E0000CD
:102CA00049410000F5420000F13C0000E000002036
:102CB0007806002010B586B000242046FDF73CFBC6
:102CC000002805D12046FDF763FB2046FDF74AFBAF
:102CD000641CE4B2022CF0D30C4802F0EAFD002898
:102CE00005D00A4802F0FCFD012000F023FA812201
:102CF000002392000649684600F064FD020003D0FC
:102D00000349684601F0CEFE06B010BDE000002089
:102D1000F208002000787047014609780020002959
:102D200003D0491E0806C00E401C704700220270E6
:102D300011464318491C5A700F29FADB70470022CC
:102D4000002803D00F2901D240184278104670475E
:102D500070B5CB0801240F2B11D206784D1CAE4262
:102D600000D20570DB00CB1A9C40C908401841789E
:102D7000E3B2002A01D0194300E09943417070BDCD
:102D800001460020CA0700D080208A0701D54022D2
:102D900010434A0701D5202210430A0701D510220B
:102DA0001043CA0601D5082210438A0601D5042221
:102DB00010434A0601D502221043090601D501211C
:102DC0000843704702490918202008567047000040
:102DD0000C02002070B500250E460446002918D0CC
:102DE000002C08461BD0FDF70BFA216888421AD147
:102DF0002079002817D1012506E02318325C5B7981
:102E00009A4200D00025401C81420CD9002DF4D1FB
:102E100009E0002C07D00068002803D003E0FDF78C
:102E2000EFF9F9E70125284670BD01460020002989
:102E300001D0FF20DA30704730B504460D46084611
:102E400000F04CF80346284600F076F80246284683
:102E500000F005F80146204600F007F830BD0021DB
:102E6000002800D0017908467047F0B500250028F9
:102E700022D0002404600171FF21DA318B421BD87B
:102E80004D1C002A11D00021461D994206D2076828
:102E9000545CBC550468641C046002E000244718BC
:102EA0007C71491CA942F0D305E000214218491C5D
:102EB0005471A942FAD301252846F0BD70B50546E4
:102EC0000C0003D00846FDF79BF900E00020034604
:102ED000224600212846FFF7C8FF70BD00210028C8
:102EE00000D001680846704770B5024600200029EE
:102EF00019D0002A1ED00C6813689C4212D10B799D
:102F00001579AB420ED10120002307E0CD18D61869
:102F10006D797679B54200D000205B1C9C4201D9C6
:102F20000028F3D170BD002AFCD011680029F9D126
:102F3000012070BD0968F9E701460020002900D092
:102F4000481D704770B5084C050009D01034216841
:102F5000002907D008682060496828468847F6E7B6
:102F60000834F4E770BD0000F8010020F8B52348EC
:102F7000416800293ED00E6821494C6887688078F6
:102F8000E11B0D022D0AED1C002814D101201D4A61
:102F9000000450601B4A403A50601B4940000860E2
:102FA0001A4908601A49012008602F2001F0BEFD6F
:102FB000124901208870B54200D23546E819000256
:102FC0000F4B000A403318600D4A5168001B091B63
:102FD0000902090A0002000AC91C814209D9506885
:102FE00018602F2001F0A2FD01200749400480391C
:102FF0000860F8BD02F0AAFBF8BD00004000002008
:10300000001501404013014080E200E000E100E0D3
:103010000010014002480078012800D000207047CD
:10302000B000002003480078002801D0002070473D
:1030300001207047B000002003480078022801D02A
:103040000020704701207047B0000020FFB583B01A
:10305000002569460D72044604981F4616460095E1
:103060000195002851D02046002100F0A9F8002841
:103070000FD020466A4602A900F045F905466019BE
:1030800001AA009900F07AF94519002E05D001989F
:1030900002E0002E01D00020308060190646012198
:1030A00000F08EF8002826D030466A4602A900F0CB
:1030B0002AF94519601901AA009900F060F845192C
:1030C000002F01D0019838700498854217D26019FA
:1030D0000646022100F074F800280CD030466A46FB
:1030E00002A900F010F9451960190C9A009900F036
:1030F00037F8451909E00020C04307B0F0BD0C982F
:10310000002802D00021FFF7D9FE2846F5E700008D
:103110000022032807D2064A0028107005D03C2060
:103120004143516001221046704700205060F9E78A
:10313000B000002006494A68002A05D000238242D8
:1031400003D9101A486001D070474B600B7070476C
:10315000B000002001460020002900D00120704767
:1031600070B50C4616460178421C0025631E304699
:10317000FFF77BFE002800D02546284670BD38B5F5
:103180001446002200926A4600F0F8F8002C01D0A4
:103190000099216038BD38B50C46054600206946C7
:1031A0000870284600F09FF82878C043400705D1F2
:1031B00068460078A04201D1012038BD002038BD0A
:1031C00038B50C460546002069460870284600F0D0
:1031D0008AF82878000705D568460078A04201D112
:1031E000012038BD002038BD38B50C46054600200A
:1031F00069460870284600F076F828784007400FA6
:10320000062805D168460078A04201D1012038BDCA
:10321000002038BD0146090700B5090F00200B004A
:10322000FEF79CFE060406080A0D1005322000BDBC
:10323000802000BDCE2000BDFF20E13000BD012078
:10324000800200BD004800BDC4050000014600B575
:10325000091100200B00FEF781FE08060507090B87
:103260000D0F1106022000BD042000BD082000BD86
:10327000102000BD202000BD402000BD412000BD29
:1032800038B50D46002100911446694600F0B2F8A9
:1032900000998A0D89022A80890A216038BD10B5FB
:1032A0001446042901D0002010BD1A462146FFF71C
:1032B000E7FF10BD08B5C3786A4613708378537072
:1032C000437893700078D07000980860042008BD9F
:1032D00000B5042903D000201060084600BD114647
:1032E000FFF7E8FF00BD0246137801201B090F2BF2
:1032F00003D0002900D00B707047002901D050780E
:103300000870022070477CB514460546FFF7EBFFB6
:103310002A785107490F052903D00023062920D018
:1033200023E0295CFF2906D0FE290ED0002C00D016
:103330002160401C7CBD461CA81901A900F05AF868
:103340008019002CF6D0019909E0461CA81969469D
:1033500000F038F88019002CECD06946098821600B
:103360007CBD002C01D023607CBDD243520702D02B
:10337000002CF4D17CBD002CF5D17CBD38B51446B1
:103380000D4600216A461180002C08D0012D08D07E
:10339000022D08D0032D0DD0042D0FD0216028461A
:1033A00038BD007804E0114600F00CF8684600884B
:1033B0002060F4E7214600F00FF8F0E7214600F026
:1033C00019F8ECE7002905D0027812020A8040784B
:1033D00002430A8002207047002909D002781204B3
:1033E0000A6043781B021A430A60807802430A602D
:1033F0000320704700290DD0027812060A60437836
:103400001B041A430A6083781B021A430A60C078BF
:1034100002430A6004207047FEB57D4C00256846D3
:1034200001952246058124321168022308469843FB
:103430002346277A5B7B4E08009376003B00FEF71D
:103440008DFD05043A6F86A416008B0701D44B0747
:1034500012D5042188431060A07BFFF759F9607BE7
:10346000002805D0012802D1E07AFFF7F1F9FEBD6E
:10347000A07BFFF70BFAFEBDC80701D01660FEBDAA
:10348000FFF7E0F900280CD0FFF77EF90646FFF7BA
:103490008DF9002878D03046FFF734F901202072EA
:1034A000FEBDFFF7EDF902F02BF90028F8D0FFF789
:1034B0000FF9A07346E08B0701D44B0744D50421D4
:1034C00088431060009802260300FEF747FD071F9F
:1034D0000605161F1F1F0500E2E7FFF7F9F8A17B9D
:1034E0000246884250D0E07A8242D9D1002302209D
:1034F0000095FEF759F92672FEBDFFF7E9F8E17A6B
:10350000884241D0A17B88427ED0FEBDFFF7E0F823
:10351000F8E7FFF7B5F902F0F3F8002874D1FEBD23
:103520008B0701D44B070FD5042188431060009806
:10353000002869D1FFF7CCF8A17B884264D0E17AFA
:103540008842ECD10320AAE7C807E2D096E7FFF74C
:10355000BFF80546FDF7BCFB6946088101462D48CA
:1035600000F094FBFDF726F9014601902948801CE4
:1035700000F098FB06200090264B2A46A17B0320F2
:10358000FEF712F904208AE726E0CB0701D0166087
:103590003AE08B0701D449071FD504218843106006
:1035A000FFF796F8E17A88422ED1A06A06282BD33D
:1035B00002A9E06AFFF706FFE06A01A9801CFFF795
:1035C00019FFFDF785FB6946098988421CD1FDF783
:1035D000F1F80199884206D016E0FF202D3002F064
:1035E0008FF800289BD0FFF773F82070FFF712F9CF
:1035F000E0720146802805D2002300952278184603
:10360000FEF7D2F82572FEBDFFF7E2F8FAE70000F8
:103610007401002040130020F0B591B008A9179F55
:10362000CA7201261C468E720AAA0B460232054651
:103630000021109201F0E6F808A9897880B20029EB
:1036400069D1295C08AA09090901117763D12918F0
:103650008A7808AB5A77285C000701D5487900E0E2
:10366000C87898776946CF728E720B460A3100226D
:103670000D46204601F0C6F86946897880B20029D7
:1036800049D1215C0A09120169460A77502A24D0DF
:1036900006DC002A09D0202A1FD0302A3BD10FE0B7
:1036A000602A1FD0702A36D11CE021188B786E4614
:1036B0007377205C000701D548790BE0C87809E0F2
:1036C00021184B786E467377205C000701D5087986
:1036D00000E088783146887707E0201843784B77F8
:1036E0008078F8E720184078487708A8417F684636
:1036F000407F81420FD1602A07D0702A05D008A8E8
:10370000817F6846807F814205D108A8017868469C
:103710000078814202D0002011B0F0BD29461098F7
:10372000FFF74BFA0028F7D00120F5E70021002829
:103730000CD001220270FF2242704A1E0281002238
:1037400082724318491CDA720729FADB70470000BD
:10375000002101220270064A1278427001810A4655
:1037600081724318491CDA720729FADB704700009E
:103770007401002010B54124E400094901232246C8
:103780000819FEF778FA0223224606490648FEF792
:1037900072FA01F063FFFFF71BF8012010BD000073
:1037A000F80C0020180F0020281300200148807812
:1037B0007047000074010020014840787047000005
:1037C00074010020FFB52B4C0027E06A81B03E4613
:1037D000002801D1E162A2822078FF2802D10120D5
:1037E000FEF7A6FF234D607A243500280BD1FEF7A3
:1037F0002BF8060007D00DE0FDF79EFE002001F03B
:10380000F5FE002806D02868810703D4410701D4BB
:10381000C007F1D0607A304318D12178FF2911D048
:10382000286842070ED5042290432860A07B884276
:103830000FD1FEF777FF002808D0FEF7C9FFFF2061
:10384000207014E0FDF734FC0028FBD12078FF281D
:103850000DD02868C1060AD5102188432860208D24
:10386000012187B2019801700198A17B417038460F
:1038700005B0F0BD74010020FFB50646002781B0F9
:103880001C463D461148FEF7A5F901001BD00298E1
:103890004078087005E003984A19405D6D1C10716E
:1038A000ADB2A542F7D34C80002E04D0307800286A
:1038B00001D0707800E0FF2048700448FEF79DF9C1
:1038C000002800D02746384605B0F0BD2813002058
:1038D00000B507497F2807D808704978884202D97F
:1038E0007F2000F00FF800BDFF28FCD1087000BD5C
:1038F00074010020022801D301498870704700003C
:10390000740100207F2806D803490A78FF2A01D0D5
:10391000824200D8487070477401002010B50E49EB
:1039200000230A784C78A24212D0521CD2B20A70FC
:10393000022A00D10B700A78074B920018339A586C
:103940000260886810180002000A8860012010BD1B
:103950000360002010BD00004000002070B5054647
:103960000C460846FFF7D8F9431C002208212846D8
:1039700000F052F90646A819214600F0A8F880196F
:1039800070BD10B50023002900D0012300220121C1
:1039900000F042F910BDF8B505460E460846FFF79F
:1039A0009DFA401C0746034600220721284600F0E6
:1039B00033F90446FF21C019E131884205DA28199C
:1039C000314600F035F80019F8BD0020F8BD70B59B
:1039D0000546401C00F057F8044603460022092122
:1039E000284600F019F9001970BD002310B51A46D9
:1039F000194600F011F910BD70B50546401C00F0E5
:103A000046F80446034600220C21284600F004F93B
:103A1000001970BD70B50546401C00F040F8044622
:103A2000034600220221284600F0F6F8001970BD76
:103A3000F8B505460E460846FFF750FA07463046E9
:103A4000FFF77AFA04463046FFF709FA0246FF21EB
:103A50002346E1312846009700F001F8F8BD70B523
:103A6000049C0546601C002D0BD0884209D82A70A2
:103A7000002103E05A5C6E187270491CA142F9D310
:103A800070BD002070BD10B500F009F810BD9202A5
:103A900010B58905920A114300F004F910BD10B564
:103AA000FF2902D80170012010BD012212049142A9
:103AB00003D289B200F0EAF810BD01221206914249
:103AC00002D200F0E8F810BD00F0ECF810BDF3B53C
:103AD00081B0074600250298FFF71CF900280ED098
:103AE0000298FFF719F906460298FFF713F9F1005B
:103AF000401A08210830081A387001240DE000200F
:103B0000387001240BE029460298FFF718F9FFF7F7
:103B100037F96D1C3855EDB2641CB542F3D320461D
:103B2000FEBD0823012203700E2903D809010B43AF
:103B3000037003E0F822027041700222017807232B
:103B4000194301701046704770B514460546FF2AA8
:103B500001D801230CE001200004844201D2022399
:103B600006E001200006844201D2032300E0042382
:103B70000122284600F050F80646A8192146FFF712
:103B800082FF801970BDF8B51D4616460446042311
:103B9000012200F041F80746E0192A463146FFF7B6
:103BA00076FFC019F8BD70B514460546FF2A01D846
:103BB00001230CE001200004844201D2022306E02C
:103BC00001200006844201D2032300E004230122E5
:103BD000284600F021F80646A8192146FFF75FFFA6
:103BE000801970BD0823012203700E2903D8090132
:103BF0000B43037003E0F822027041700222017847
:103C0000062319430170104670472023037041704A
:103C1000827003207047000070B504460025012023
:103C20002570002A01D0082222700E2904D822789B
:103C300009010A43227005E02078F0221043207029
:103C4000617002202178042B02D81943217070BDC5
:103C5000052211432170FD2B02D82354401C70BD56
:103C600009498B4207D8FE212154451C99B260199D
:103C700000F00CF806E0FF212154451C601919469C
:103C800000F010F8401970BDFFFF00000A0A027032
:103C90004170022070470A0C02700A0A427081705B
:103CA000032070470A0E02700A0C42700A0A8270E2
:103CB000C17004207047826883881A4003689A5C48
:103CC0000A708168491C81607047C26883881A4005
:103CD00003689954C168491CC160704738B50446EF
:103CE0006846047069460320ABBE204638BD00001C
:103CF000FFB5FFB084B000206946088108711D46F9
:103D000016467EA8FFF724FD002211467BA800F08E
:103D100025FE7BAB7EAA3146254800F02EFE0446E8
:103D20002878234F002804D038190123297B042246
:103D30000DE003A8009001AB02AA84998398FFF7D5
:103D400085F9002806DA297B381901230022FEF7BD
:103D500045F923E068460079032805D3297B381903
:103D6000082201F078FA19E0124903A8FFF732F8A7
:103D700000280BD0297B38191122FFF746FF054692
:103D8000684601890079FFF7C3F908E01A2000901E
:103D9000297B381904231122FEF7FAFE0546631920
:103DA000034A7BA93046FFF767FD7FB008B0F0BD3E
:103DB00078060020B8000020FFB591B03620694693
:103DC0000024C8831F46E4430BA8FFF7C1FC002270
:103DD000114608A800F0C2FD08AB0BAA344813999D
:103DE00000F0CBFD05463878314E002837D101AAC6
:103DF0001299119801F069FA002829DB6846808839
:103E0000082806D10298A10A884202D1FCF7D2FC08
:103E10000290397B701901AA01F027FA044628198B
:103E200081190591FF21FB31081A069001A8FCF7C2
:103E300071FD00280CDB24182819801901F03BFAC9
:103E40002418B868A0422ADA36206946C88306E0FA
:103E5000811C04D0411C0DD0C01C16D01FE0684648
:103E6000C08BFEF7A6F8C2B2397B70190123FEF7AA
:103E7000B5F813E06846C08B00906846838B397BA9
:103E800070190C22FEF784FE08E06846C08B01F032
:103E9000C1F9C2B2397B701901F0DDF904462B1962
:103EA000034A08A91398FFF7E7FC15B0F0BD00001E
:103EB00078060020FFB597B0002611A8FFF748FC50
:103EC000002211460EA800F049FD0EAB11AA9B4836
:103ED000199900F052FD06901A98007800287DD1BB
:103EE0001A98069A017B95488018054601F048FA11
:103EF0000446189801AA811B1798801901F0B7FA97
:103F000000286CDB301887B268468088082806D104
:103F10008B490298884202D1FCF74CFC029001A91F
:103F2000884801F038FA0346FF20E1300090284627
:103F30002246844900F04CFC0004000C6BD024188D
:103F4000189801AAC11B1798C01901F0BDFA0028E2
:103F5000D7DB381887B2039808282ED069282CD0D0
:103F600050282AD0FF22A1B2284601ABE132FDF74A
:103F700065FD00286FDD241817980121C019FFF78F
:103F80000AF90028DCD07F1CBEB26E4801F015FA99
:103F90000346FF20E130009028462246694900F0A0
:103FA00017FC0004000C36D0241818988642A0D3C1
:103FB0001A988068A0422EDBB6E004980026401CC8
:103FC0002DD06048049A039901F001FA0646FF20BB
:103FD000E130009028463346224601E01BE077E0BE
:103FE000584900F0F5FB0004000C14D0A41932224B
:103FF0000221544801F000FA0646FF20E13000900B
:104000002846334622464F4900F0E2FB0004000CEC
:1040100001D0A419B0E736206946C8825FE0039852
:1040200007906846808808AA0299FCF739FC07982F
:10403000082808D069280CD050289DD10B980090F2
:10404000002899D03EE00B99099840180D99401826
:10405000F5E70998F3E739E00B9A002096460D9AA8
:104060000799C043099B9446082904D0692915D0B3
:10407000502916D01AE09E4201D2089914E07146E8
:104080005918B14202D9F01A0A9905E062468A1815
:10409000B2420BD9701A0C99800006E09E42ECD314
:1040A00004E0764502D20A99B00008580390FF2236
:1040B000A1B2284601ABE132FDF7C0FC002805DDC6
:1040C0002418761C00988642C6D355E700282BD0CA
:1040D000811C04D0411C10D0C01C1AD024E06846BA
:1040E000C08AFDF766FFC2B21A98069B017B13488F
:1040F000C0180123FDF772FF15E06846C08A0090E2
:104100006846838A1A980E22017B2846FEF740FDF6
:1041100009E06846C08A01F07DF8C2B21A98017BB6
:10412000284601F098F804460698044A23180EA978
:104130001998FFF7A1FB1BB0F0BD00007806002026
:10414000FFFF3F0098040020FFB5FFB084B01D467C
:1041500016467EA8FFF7FCFA002211467BA800F065
:10416000FDFB7BAB7EAA3146214800F006FC0446ED
:1041700028781F4F002804D038190123297B0422F6
:104180000BE002AB01AA8499839801F006F800289D
:1041900006DA297B381901230022FDF71FFF1EE0F4
:1041A00068460079072805D3297B3819082201F0D1
:1041B00052F814E001A8FCF705FD002805D0297B82
:1041C00038191422FFF721FD09E070A8408D0090F6
:1041D00070A8038D297B38191422FEF7D9FC231807
:1041E000034A7BA93046FFF747FB7FB008B0F0BD1C
:1041F0007806002070B588B01E46144603A8FFF765
:10420000A7FA00221146684600F0A8FB6B4603AAF5
:104210002146094800F0B1FB05460748317B4019AB
:10422000092201F018F82B18034A69462046FFF7C7
:1042300023FB08B070BD00007806002010B5FFB069
:10424000F7B06A4601F042FD002834DD0098401CBA
:104250000CD00198401C09D0FCF7ACFA00998842B8
:1042600029D3FCF7A7FA0199884224D8002168468F
:104270007B917C91017A00290ED00C307CAA7BA91D
:104280000446FCF7EFFC002815D0FCF793FA7B9965
:10429000234689B27C9A0CE080897DAA0499FCF7B8
:1042A000DDFA002807D0FCF785FA694689897DABDD
:1042B000049AFDF775FD7FB077B010BD1CB50022E4
:1042C0000092019201AB6A4601F078FD00280BD004
:1042D000401C0CD0FCF76EFA0099884207D3FCF71B
:1042E00069FA0199884202D80148FDF749FD1CBDD1
:1042F00078060020FFB5FFB08AB01D46164683A899
:10430000FFF726FA0022114680A800F027FB80ABB9
:1043100083AA31461C4800F030FB044628781A4F27
:10432000002804D038190123297B04220AE001AABD
:104330008A99899801F098FD002806DC297B3819B4
:1043400001230022FDF74AFE14E001A8FCF7C3FC9C
:10435000002805D0297B38190F22FFF756FC09E009
:1043600070A8808F009070A8438F297B38190F2286
:10437000FEF70EFC2318044A80A93046FFF77CFAAA
:104380007FB00EB0F0BD000078060020FFB581B010
:10439000044600200A9E1746002C18D010202070DA
:1043A000002060700A46A01C0821FFF725FB851C31
:1043B00060193946FFF72EFB2D1860190499FFF795
:1043C00006FB2D1860193146FFF724FB281805B0AD
:1043D000F0BD70B586B0054614460E4601A8FFF73D
:1043E000B7F93046FFF7A2F900221146204600F047
:1043F000B5FA234601AA3146284600F0BEFA044623
:10440000FCF766FC0646FCF7D5F90146FF222819A1
:104410000323E1320096FFF7B9FF201806B070BD04
:1044200070B5044600200D46002C17D0002D15D085
:1044300010202070012060702988A01C6A68FFF796
:10444000DBFA861C2989A019EA68FFF7D5FA361825
:104450002946A0191031FFF79EFA301870BDF7B544
:104460000025164604462F4616E0A800012109043F
:10447000A940FF3041302258002A0BD003221202FB
:10448000A21852680A4205D02750019A0199126871
:10449000496890476D1CEDB2B542E6D3FEBD000001
:1044A0001048018CC9B2012917D1818C090714D198
:1044B000018D09060A0F03D1828D1206120F0ED04C
:1044C000090F012903D1828D1206120F07D003298B
:1044D00003D1808D0006000F01D00020704701201D
:1044E00070470000C00F00F010B5082000F077FD05
:1044F000092000F074FD0A2000F071FD0B2000F08F
:104500006EFD00F07BF800F037F800F00FF80B209C
:1045100000F088FD10BD000010B50A2000F07AFD03
:1045200001490020887010BDA401002010B50A20A8
:1045300000F078FD01490120887010BDA401002021
:1045400010B505488078002802D0FFF7E5FF10BDC0
:10455000FFF7ECFF10BD0000A401002010B50920FA
:1045600000F058FD034801F0B6F902490020091F88
:10457000087010BDA801002010B5092000F052FD00
:10458000034801F0A8F902490120091F087010BD75
:10459000A801002010B50446FFF7EEFF21460248AF
:1045A00001F0A5F910BD0000A801002010B50B48CE
:1045B00001F07FF9002804D0084801F08CF9FFF7DA
:1045C000CDFF0648083001F074F9002805D00348F3
:1045D000083001F080F900F003F810BDA8010020B8
:1045E00010B5082000F016FD034801F074F90249E7
:1045F00000200C39487010BDB001002010B5082013
:1046000000F010FD034801F066F9024901200C3961
:10461000487010BDB001002010B50446FFF7EEFF52
:104620002146024801F063F910BD0000B0010020EE
:10463000F0B5284C2146103948688B6822788646A8
:104640009C46CF78667836E0182353436168521C45
:10465000C918A378D2B2934200D100220B78022B62
:1046600002D0032B27D123E003464D68194603E00F
:10467000A94204D00B46C96900291CD0F8E70029DB
:1046800019D08B4208D1C069002805D1124F0125ED
:10469000BD600025AC4601270D68C969D9610029B4
:1046A00009D00B685B190B6005E00174C06900E07C
:1046B00000210028F9D19642C6D106496246103938
:1046C0008A604860CF70704501D00120F0BD0020A5
:1046D000F0BD00005000002000100140F8B52C4E45
:1046E000044670680025009041E0002C02D020466E
:1046F000E46920E0264818231030017842684B43D3
:10470000491CC9B2D21801708378994200D1057052
:104710001178506801292CD1017C002929D1916898
:104720004160D16881601169C16051698161F1782E
:10473000002900D045604368B268164F991A0902F3
:10474000090AB94202D28268891806E0D11A090220
:104750008268090A8A4202D9511A016000E00560A4
:104760004560012185600174C56101F019F9002CD3
:10477000BBD107481030017840788142BAD17168C6
:104780000098814201D00120F8BD0020F8BD000052
:1047900040000020FFFF7F001CB501F055F8FFF737
:1047A000A3FE00F05BFFFEF73DFA7D21684601F0B5
:1047B0009EF8684601F07DF8002804D0684601F0B4
:1047C0008FF8FFF7BDFEFFF7F1FEFEF773FAF0E793
:1047D00070B51E4614460B460546324620460499DF
:1047E00000F009F8002805D0281932461946FBF7D1
:1047F000E3FC304670BD8018884201D80120704724
:1048000000207047FFB5002483B069468C801E46A7
:10481000054627460C8000287ED0002E7CD02878C4
:10482000307068780224C009B07068784007C00F03
:10483000707068788007800FF070687880061FD5E8
:10484000A81CFEF7BFFD841C285D0499641C002988
:1048500005D069460A8804990A810499887200285B
:104860001DD0072832D808E0295D049A641C002A6C
:1048700001D0D219D1727F1CFFB28742F4D30EE06F
:10488000049800280BD004990020088104998872AC
:104890000499C9197F1CFFB2C872072FF8D3687832
:1048A000000725D5281901A9FEF78CFD0419295DFB
:1048B0000598641C002805D0684682880598028106
:1048C0000598817200292AD0072903D90020C04306
:1048D00007B0F0BD002008E02A5D059B641C002B9A
:1048E00001D01B18DA72401CC0B28842F4D316E023
:1048F0000598002813D000891749884202D00599ED
:10490000002008810598002181720846059A121836
:10491000401CD172C0B200E018E00728F6D3684608
:104920000088002803D0285D3072641C01E000205C
:104930003072B07800280AD0285D641CB0808028CE
:1049400008D32819B11DFEF73DFD041902E0FF2030
:104950000130B0802046BBE7FFFF000000280BD0ED
:104960004170012101700021FF2381700133838098
:10497000C180C270FF2101727047FFB5002481B071
:1049800016460F460546009400287ED0049800285D
:104990007BD0007828700020687004988078002808
:1049A00001D080206870002F06D03889002803D0FD
:1049B0006878202108436870002E09D030890028CB
:1049C00006D0B07A002803D06878082108436870C0
:1049D00004984078002803D0687804210843687060
:1049E00004996878C97802248907890F0843687098
:1049F000002F19D03989002916D0A81CFFF746F9D5
:104A0000801CB97A2954441CB87A002808D10BE0DC
:104A10003818C07A28550098401CC0B2641C009019
:104A2000B97A00988142F3D8002E1AD03189002932
:104A300017D0B07A002814D02819FFF727F90419E5
:104A4000B07A2855B07A641C00280AD0002005E00E
:104A50003118C97A401C2955C0B2641CB17A814210
:104A6000F6D8002F06D03889002803D00498007AA1
:104A70002855641C0498807800280FD00498007989
:104A800028550498641C808800E007E0802805D33E
:104A90000498C1882819FFF7F9F80419204605B0D1
:104AA000F0BD000070B588B00C46064615461421CE
:104AB00003A8FBF79AFB0020009001900290207859
:104AC00001281FD16B46324603A92046FFF79AFE04
:104AD00069468978002915D1002813DDA84211DC28
:104AE0006946898A002907D0074A91420AD1914232
:104AF00002D1215C090905D0291A8AB22118304651
:104B0000FDF7DAFA08B070BDFFFF0000C2084307E6
:104B10005B0F0120895C984008407047012189079C
:104B200040180068002800D00120704700280FD0EE
:104B30000849094A096800BF00BF00BF00BF00BFA5
:104B400000BF00BF00BF914200D000BF401EF2D1A5
:104B500070470000D80100200024F400F8B5FF20C1
:104B60000130FFF7DBFF002401250E4E0E4F002819
:104B700007D00E4804600120B0607D700020FEF771
:104B8000E1F9FF200530FFF7C9FF002808D00748EA
:104B9000001D04600220B060BD700120FEF7D2F954
:104BA000F8BD000000030040F801002000010040B3
:104BB0008207D30EFF229A408907090E10B599404B
:104BC00000280BDA03071B0F083B9C080C4BA400C2
:104BD000E318DC6994430C43DC6107E08408094B6B
:104BE000A400E418236893430B432360C106C90E55
:104BF00001208840044908600449086010BD000095
:104C000000ED00E000E400E080E200E000E100E010
:104C100006484068400708D5054802680021002A78
:104C200003D001600348406800477047000300401C
:104C3000080100401C000020024901208860024950
:104C40000860704700D3004004D00040F7B5044628
:104C500082B0FF20413000900125032089002D04FF
:104C6000002700022618019116E0706828420DD036
:104C700000982058002809D0B564B560009800213C
:104C80002150184A0199F8B25158884700986D0090
:104C9000001D80B27F1C009004988742E5D3FF205E
:104CA00071680130C907C90F09D02158002906D001
:104CB000002121500B490198095804208847FF2002
:104CC0000530726802210A4209D02158002906D015
:104CD000002121500349019809580520884705B053
:104CE000F0BD000030000020064A43009A18403A08
:104CF000D38F8B43D387034B8200143BD218803A67
:104D0000D26F104798020020F8B506460F4600798A
:104D10001C2148431A4915464418E07E002801D05A
:104D20000820F8BD39463046FDF790FC65603869CB
:104D3000206028460025002813D0FF223068397FE4
:104D40001D328550FF22306845328550032330687C
:104D50001B020C4AC01842603068000B40B2FFF7DB
:104D600027FF052230680421120280180160E575D2
:104D70002576A5750121E1762846A576F8BD0000C7
:104D8000C802002080000200F8B503791C246343A8
:104D9000134C81251C19032766680023AD003F02D0
:104DA000002E02D00668F619B560E67D002E0ED002
:104DB000237E002B07D06168002902D00068C0194B
:104DC00045601120F8BD21610123227604E0E275DF
:104DD0000025E1606576257600F01AF8F8BD000040
:104DE000C802002070B5044600791C21074D4843D5
:104DF0004019807E002808D1204600F0E6FC20798A
:104E00001C22012150434019817670BDC802002048
:104E1000F8B5044600791C21484326494518A87E68
:104E2000184302D1204600F0D0FC6868002808D062
:104E3000812103222068890012028018416000202D
:104E4000F8BDFF204530216800220A50FF2125319E
:104E5000206800F07FF90646FF210931206800F044
:104E600079F90090FF214531206800F073F9074679
:104E7000009838433043E9D03046384307D12946BB
:104E8000206800F085FCE87D697E8842DED800203D
:104E9000E875002E01D00320F8BD002F01D00F20AF
:104EA000F8BDA97E01200029216801D00860C6E76D
:104EB0004860C4E7C802002070B505460C4600797A
:104EC0001C21484308494318284600F055F800289B
:104ED00001D0112070BD9A7500209C6098822846F0
:104EE00000F004F870BD0000C8020020F8B50446C8
:104EF00000791C2148431F4900264518FF272068D8
:104F00001D37C6512068012181602946206800F0C4
:104F1000ADFD6968002913D027E0FF270137FF2185
:104F20001D31206800F016F9002802D1A88AB84285
:104F3000F5D1A88AB84203D02946206800F096FD32
:104F4000A88AA97D8842E8D3A98AC81FF9380ED05B
:104F5000FF271D373946206800F0FCF80028F9D0FB
:104F600020680121C1600020A8753046F8BD0F26D9
:104F7000F9E70000C802002000791C2148430349DA
:104F80004018807D002800D001207047C802002012
:104F900070B552000A439900049D0A432902059EF8
:104FA0000A43310405240A4324078000072100191D
:104FB00009024018026070BD1CB500220B46009229
:104FC00011460192FFF7E4FF1CBD1CB500210091C2
:104FD0000B46012201911146FFF7DAFF1CBD0522A5
:104FE0001207800080180722032112028018016036
:104FF000704705221207800082180720000210184F
:10500000026803231B049A430260026809040A43EE
:1050100002607047012181400148C1607047000073
:105020000005005001218140014881607047000067
:105030000005005038B5084B05241B680093240276
:105040006B46411805E085005D592D192D69401CFE
:1050500020C28142F7D838BD905F00000249401855
:1050600000210160704700000060004003494018C3
:105070000068012800D00020704700000060004058
:10508000016880684A68824201D2521C00E0002216
:105090000868824201D10120704700207047806873
:1050A000884201D9481C704700207047F8B5044673
:1050B00000200E460090FDF7AFFA2046FFF7E0FF14
:1050C000070009D0207C002806D004200090002092
:1050D000FDF7A6FA0098F8BD2068416820460D4605
:1050E000FFF7DDFF2168002F486006D020680168C7
:1050F0002046FFF7D4FF21680860E268012A15D036
:10510000022A17D0042A1AD0082A1DD01046616836
:10511000684308183146FBF74FF8204600F032F894
:1051200021688A688242D2D28860D0E7616830788C
:105130004855F2E7616830886A008852EDE7616897
:105140003068AA008850E8E7626803CEEB00D21806
:1051500003C2E2E74058002800D001207047032234
:10516000120280184068084000D0012070470021DA
:10517000002802D104E0001D491C0268521CFAD12B
:1051800008467047016806C98A4201D3501A704721
:105190008068401A401C80187047FFB50F4683B0E6
:1051A000002569460D711646044600950295002FAC
:1051B0002AD020460021FEF703F8002827D02046F9
:1051C0006A4601A9FEF79FF80546601902AA0099F0
:1051D000FDF7D5FF4519002E01D002983070BD4271
:1051E00012D2601906460121FDF7EAFF00280ED011
:1051F00030466A4601A9FEF786F845196019069AF5
:105200000099FDF7ADFF4519284607B0F0BD002015
:10521000C043FAE7014600B53B3900200B00FCF71C
:105220009DFE0A06080A0C0E10121416180701201B
:1052300000BD022000BD032000BD042000BD0520EC
:1052400000BD062000BD072000BD082000BD0920CC
:1052500000BD402000BD0023002804D0602303705F
:105260004170827003231846704770B504460020D1
:105270001646002C1ED03020207061700C20A070CB
:105280003288E01C00217368FEF77DFCC51C6019A4
:105290000121B268FEF758FCF2682D18501C04D0AA
:1052A00060190221FEF77FFC2D1860190321FEF71B
:1052B00099FC281870BD024610B50020002A03D0C2
:1052C00003211046FEF72DFC10BDF0B587B00F4648
:1052D000002669460E7300960E8205461446059612
:1052E0000696002A3DD0072F02D23F2050833EE091
:1052F00028460021FDF764FF002812D0681C221DFB
:1053000004A9FDF7BDFF461C6846008A2080A81945
:105310006A4603A9FDF7F7FF86196846007B012856
:1053200001D03E2022E0A81905AA0099FDF727FF29
:1053300086190598A060BE421DD2A8196A4603A925
:10534000FDF7E1FF86196846007B0228E9D1BE42DD
:10535000E7D2A81906AA0099FEF710F88619069850
:10536000E060BE420AD2002C01D0412060830220BE
:10537000C04307B0F0BD0020C043F1E73046F8E776
:105380000022002805D03022027041700E21817069
:1053900003221046704770B504460020002C0BD045
:1053A0000A884B6800212046FEF7EDFB0546601990
:1053B0000121FEF717FC401970BD024610B5002010
:1053C000002A03D001211046FEF7ABFB10BD70B5DB
:1053D00000241546064600280CD00A460221FEF796
:1053E000B3FB0446681C05D030192A460321FEF79A
:1053F000DAFB0419204670BDF8B5044600201646B5
:105400000D46002C13D020460521FEF7EBFB074686
:10541000E0192946FEF7DBFAC51960193146FEF797
:10542000D6FA451960190521FEF77BFB4019F8BD36
:10543000F7B50546002017460646002D16D028462B
:105440000421FEF7CFFB044601982919814206D1B9
:10545000E41906E00198805D2855641C761CBE4264
:10546000F8D328190421FEF75CFB0019FEBDF8B53E
:10547000044600206B4615461880002C1FD00029DA
:105480001DD0002D1BD0052902D23F20688218E0D4
:1054900020460021FDF794FE3E27002810D0601C16
:1054A0002A1D6946FDF7ECFE461C684600882880E8
:1054B000A0190121FDF798FE002801D0701CF8BD4D
:1054C0006F820220C043F8BDF0B585B00F460026BC
:1054D00069460E700446154601960296039600280A
:1054E00043D0002F41D0002D3FD02078000702D4B8
:1054F0003E2050822EE0204601AAFDF704FF06461A
:1055000068460078002801D03E2022E001997018FA
:10551000B8421DD2A01902AAFDF731FE86190298E1
:10552000A8600020C043E860A05D01071DD5C0430E
:1055300040071AD0A01901AA6946FDF7E4FE6946A2
:105540000978012911D1019936187018B84205D38C
:105550003F2068820220C04305B0F0BDA01903AA15
:10556000FDF70CFF86190398E8603046F4E7000069
:105570000148406870470000B801002030B504467B
:10558000E1252D024B220120631B12020F49AC4280
:1055900018D008DC0E4BE41A10D0E31A10D0934256
:1055A0000AD10C4A06E09A1A0ED04B235B029A42AB
:1055B00002D1094A4A6230BD002030BD074AF9E7EE
:1055C000074AF7E7074AF5E7074AF3E700250040EF
:1055D0008025000000509D0000E0D701005027000A
:1055E00000A04E0000F0EB0000903A0170B50546B7
:1055F00000240A48FBF760FC00280CD1002D03D0E2
:105600000648FBF764FC2870054800F009F90124FE
:105610000A20FEF7BFFF204670BD00007415002071
:10562000C001002010B504460A20FEF7F5FF204611
:10563000FCF7D2FF014800F0F3F810BDC0010020D4
:105640000248C069002800D00120704700210040B6
:105650000148007870470000B801002010B58AB0FA
:10566000182216496846FAF7A7FD15480521069045
:10567000401D0791099108900323124A06A9684624
:10568000FCF752FF044610A0FCF75EFC200001D09E
:10569000FCF784FE0A480C384068FFF76FFF0122D0
:1056A0000E4952028818FBF724FC0548001F00F041
:1056B000B7F80B49032008600AB010BD78600000FD
:1056C000C4010020A55A0000207561727420696E23
:1056D0006974206F6B2E0A0D000000007413002007
:1056E00008070050002070470449002802D0042019
:1056F000886070470420C8607047000000050050B3
:1057000010B50146014800F081F810BDC00100202D
:1057100010B5024800F084F810BD0000C001002060
:1057200010B508484168002905D00748FAF708FD78
:10573000801C81B200E002210248083000F066F8C7
:1057400010BD0000B8010020409C000070B501248D
:105750000B49600408600B494010886009494039D2
:105760008860094D6C602F20FFF7E0F9AC60074DB1
:1057700000242F20AC60FFF7D9F9AC7070BD000099
:1057800080E100E040130140001001404000002093
:1057900030B5FF220523CD7D002409321B02C3183A
:1057A000002D8450986905D04B7ECA68D054487E3D
:1057B000401C487630BD1FB501246B461C70197221
:1057C000019206C8684690471FBDFF232533026833
:1057D0000021D150FF2302680933D1500068012114
:1057E0000160704710B5074901230C785803064A39
:1057F000002C03D0D0600020087010BD90600B70AA
:1058000010BD0000D00100200005005010B50C466E
:1058100000F00EF8A04201D3012010BD002010BD01
:1058200010B5044600F0DCF8002C00D0206010BD5C
:1058300010B5044600F0D4F801460020002C01D039
:105840002068081A10BD000010B510490320086038
:1058500000230F4A05211846FCF7ECFD002801D073
:10586000FCF79CFD0B4A01210B48FCF7CDFD0028FD
:1058700001D0FCF793FD0648002201212038FCF7F7
:1058800013FE002801D0FCF789FD10BD340700503D
:10589000A4150020F91800009060000010B504461F
:1058A00000F09EF801460020002C01D02068081A64
:1058B00010BD10B504460020002C09D061680029F5
:1058C00006D02046FFF7EAFF6168884201D3012035
:1058D00010BD002010BD002801D00021416070479C
:1058E000002803D006C8891808380160704770B5D1
:1058F0000D46040002D000F073F821C470BD7D2273
:1059000010B5D2005143FFF7F2FF10BDFEB51F4C9A
:105910000025A768606802906846FDF7FFFF0190C8
:10592000FEF786FE06460198002822D00023009844
:10593000616817E00E680A46864202D9301A08608C
:1059400012E0801BF31800261660D668D169B446B1
:10595000002E07D0FE183602360A5660664696605C
:10596000D56115460029E5D128466160FEF7B6FEEF
:1059700006E02846FEF7B2FE002801D1002E02D034
:105980000298FDF7F3FA0020E070FEBD4000002011
:1059900001200249000508607047000000E200E0B5
:1059A00010B50E4B5968002906D002680C68A24257
:1059B00004D8A21A0A60C161586010BD0B4604E009
:1059C0000B46C969121B002904D00C689442F7D316
:1059D000A41A0C600260C161D86110BD40000020B3
:1059E0000148406870470000D0010020F8B51D4D07
:1059F0006C68002C34D01C4800274068A968401A05
:105A00000602360A2068B04218D8361AC71922464C
:105A1000107CE46900280FD000201074EB68002B84
:105A200007D0916950699847002805D0FCF7B6FC6B
:105A300002E0516990698847002CE3D129786878A1
:105A4000814206D1401CC0B26870022801D10020FA
:105A5000687004490006800D18310F50FFF798FF59
:105A6000F8BD00004000002000150140FF221D325B
:105A7000002383508B8A8A68D25C8B8A5B1C8B8262
:105A8000052109024018C26170471FB500226B460C
:105A90001A70197281680191827506C8684690472C
:105AA0001FBD000010B504460078022801D001286F
:105AB00002D16068FCF772FC21780448032902D007
:105AC0000021017010BD0121FBE70000B80100209A
:105AD0007CB50178264D002934D001290CD002294B
