:020000040000FA
:10000000B81E0020D5000000EF000000F100000045
:1000100000000000000000000000000000000000E0
:10002000000000000000000000000000F3000000DD
:100030000000000000000000F5000000F7000000D4
:100040003D230000F9000000B5290000F900000080
:10005000F900000000000000F9000000F9000000B5
:10006000F90000009D290000F90000004125000072
:10007000F9000000F9000000F9000000F90000009C
:10008000F9000000F9000000F9000000F90000008C
:10009000F90000002D28000041280000552800002C
:1000A000692800007D28000000000000000000001A
:1000B0000000000000000000000000000000000040
:1000C0000348854600F092F800480047DD580000DC
:1000D000B81E00200321094802680A43026008484C
:1000E00002680A4302600748804707480047FEE766
:1000F000FEE7FEE7FEE7FEE7FEE70000240500401E
:100100005405004039290000C100000030B50B46FD
:10011000014600202022012409E00D46D5409D42E1
:1001200005D31D469540491B254695404019154667
:10013000521E002DF1DC30BD70B50024254600288C
:1001400001DA01244042002901DA01254942FFF782
:10015000DDFFAC4200D04042002C00D0494270BDCF
:100160000549064A08685043054A80180860400857
:100170007047014908607047740100206D4EC64108
:100180003930000003460B439B0703D009E008C940
:10019000121F08C0042AFAD203E00B780370401C37
:1001A000491C521EF9D27047D2B201E00270401CC5
:1001B000491EFBD270470022F6E710B513460A46E7
:1001C00004461946FFF7F0FF204610BD421C017897
:1001D000401C0029FBD1801A704703460A78027040
:1001E000401C491C002AF9D118467047064C0125CD
:1001F000064E05E0E36807CC2B430C3C98471034CF
:10020000B442F7D3FFF760FF246E0000446E000095
:1002100030B58C180278401C13071B0F01D10378EE
:10022000401C120906D10278401C03E005780D70CD
:10023000401C491C5B1EF9D101E00B70491C521E89
:10024000FBD1A142E6D3002030BD022070477047A9
:1002500030B5002412E00021204600F04FF80021C4
:10026000204600F039F8002505E0FF202101054A6D
:10027000891848556D1C102DF7D3641C022CEAD345
:1002800030BD0000260C002001460220022900D2C9
:100290000846704770B504460D460026022C07D26A
:1002A000204630300349C870284603F028FC064633
:1002B000304670BD8400002001460020022907D28C
:1002C000044A525C002A01D0012200E000221046BC
:1002D0007047000080000020022801D2014A11541A
:1002E000704700008000002001460020022901D252
:1002F000014A505C70470000820000200246002046
:10030000022A04D2022902DA014B995401207047D3
:100310008200002070B5044600252046FFF7B4FF98
:100320000546284602F034F870BD000030B503469B
:100330000020022B06D2102A04DA1C01024D641997
:10034000A154012030BD0000260C0020002801D05F
:10035000054B0360002901D0044B0B60002A01D03B
:10036000034B136070470000646D0000906D000047
:100370009C6D0000F0B5FFB082B004460020809074
:100380000025039000270290019000262069002894
:1003900002D06069002803D100207FB002B0F0BD18
:1003A0002669A068542851D008DC04287BD0242872
:1003B00034D02E2878D0512877D135E0552806D072
:1003C00057284ED0682871D06F28F5D109E06068B1
:1003D000FFF7A0FF03903046039904F0C5FA0546E5
:1003E000C5E07CA803F099FA002211467CA803F02E
:1003F000A9FA002201217CA803F0A4FA002202211C
:100400007CA803F09FFA002203217CA803F09AFA4B
:100410007CA9304604F062FA0546A8E00021304687
:1004200004F0A2FA0546A2E06068FFF72DFF074638
:100430005848C05D002801D0012000E00020019054
:100440003046019904F061FA054690E06068FFF7D4
:100450001BFF07465048C15D304604F085FA05464B
:1004600085E0E068002805D11021304604F0ABFAA1
:10047000054658E0E068401C002832D16068FFF76C
:1004800003FF07460020029027E038014349411846
:100490000298085C03900398FF2808D1701904F0B3
:1004A00075FA809008E047E050E059E03CE07019B0
:1004B000039904F059FA809080982818FF21E131BF
:1004C000884202DA80982D1804E0362060830125E6
:1004D000ED4305E00298401C029002981028D4D306
:1004E00021E06068FFF7D0FE0746E068102814D8C6
:1004F00038012A494118E068401E085C03900398BF
:10050000FF2804D1701904F041FA05460BE0701978
:10051000039904F029FA054605E0022020832A20E9
:1005200060830025ED4322E00020039030460399CC
:1005300004F01AFA05461AE019A104A803F0DFFA3C
:1005400004A9304604F0F2F9054610E015A104A80C
:1005500003F0D5FA04A9304604F0E8F9054606E0B0
:1005600002202083202060830025ED4300BF00BFD0
:10057000002D0CDBA068572809D0E068401C00283B
:1005800005D002202083322060830025ED432846D9
:1005900003E700008000002082000020260C0020DD
:1005A0006F6E00006F6666000146022901D20120CD
:1005B00070470020FCE7F0B5FBB00446002600259C
:1005C000FF207A900027FF20F13001596A4620462B
:1005D000103002F093FF0746002F09DA0221FF20B6
:1005E000F73001532521801C015300207BB0F0BD62
:1005F000A06857280CD0E068401C002808D00221D1
:10060000FF20F73001533221801C01530020EDE719
:10061000A06851286ED00EDC4B286CD006DC042874
:100620006AD0242869D02E2868D1B7E04D2871D02F
:100630004F28F9D1ABE067286DD006DC54286BD089
:10064000552807D05728EFD1A5E068286ED06F282D
:10065000EAD19DE02346FF33F9339A1E092168460B
:1006600002F0BCF90646002E29D0FF20F530055DCA
:10067000002D10D0102D0ED8062D0CD00198012879
:1006800009D80198C0B27A906D1EEAB260687A9972
:10069000FFF74CFE49E0062D08D100260221FF207D
:1006A000F73001532821801C01533EE0002602212F
:1006B000FF20F73001532521801C015335E02346EC
:1006C000FF33F9339A1E0021684602F087F9064687
:1006D000002E2AD0FF207A90FF20F530055D002DF6
:1006E0000DD0102D0BD86D1EEAB260687A99FFF715
:1006F0001DFE1AE01BE048E04FE04BE056E0062DFF
:100700000BD100260221FF20F73001532821801C45
:1007100001530AE03AE03CE01AE000260221FF2003
:10072000F73001532521801C015347E034E0234674
:10073000FF33F9339A1E0121684602F04FF906464D
:10074000002E04D06A4611796068FFF7C5FD35E0D8
:100750002346FF33F9339A1E0921684602F03EF919
:100760000646002E10D00198022805D2019AD1B277
:100770006068FFF7C3FD07E000260221FF20F73085
:1007800001532521801C015318E000BF00BF00BFAA
:1007900000BF00BF00BF00BF00BF00BF0221FF209D
:1007A000F73001532821801C015307E00221FF206C
:1007B000F73001532021801C015300BF00BF00BF50
:1007C000304613E710B503460A46D0B258400146FA
:1007D00010120C026040CC0060400C0360400C1111
:1007E00060400C07240F60400C07640D604080B22D
:1007F00010BD10B502460B46184650400146480051
:1008000048408C006040CC0060400C0160404C01CE
:1008100060408C016040CC01604081B20846FE24FB
:100820002040CC05E40F604010BD0120704700005F
:100830000148006870470000080100200248006875
:10084000401C01490860704708010020014601482A
:10085000006870470001002070B505460024114C67
:1008600005E06068002801D0606880472434208853
:10087000012189028842F4DB0021084603F028FAAE
:10088000094800680949884206D36720064908607C
:1008900008460068FFF76DFC05A10C4803F02FF92E
:1008A00070BD00009400002000010020FFFF3F0009
:1008B00073746D33322D64657369676E2D6368617F
:1008C0006C6C656E67652D3130330000480C00207C
:1008D00001480068704700000001002070B5002545
:1008E0000024084C06E0A068002802D0A0688047D9
:1008F000451924342088012189028842F3DB2846E7
:1009000070BD000094000020F7B582B005460F4688
:1009100000200190009000260024002D02D10198B3
:1009200005B0F0BD6E1E114C18E0A068002814D070
:10093000E068002811D00098361AA068804700901F
:100940000098864209D2208838603046E16888479E
:10095000049908600120019005E0243420880121D9
:1009600089028842E1DB00BF0198D9E794000020AA
:1009700070B504460D46002605480068844204D13F
:100980000449284603F06DF80646304670BD000065
:1009900000010020480C0020F8B507460D46164619
:1009A000002400200090384600F00EF80446002C89
:1009B00007D06069002804D0314628466269904714
:1009C00000900098F8BD000002460021074905E0AC
:1009D0000888904201D108467047243108880123D5
:1009E0009B029842F4DB0020F6E700009400002010
:1009F000F8B506460F461446002500202060A0608A
:100A000020613046FFF7E0FF0546002D09D0286A37
:100A1000002806D0224610322146083120462B6A93
:100A200098472068002800D102E0206805F074FB98
:100A30006060A068002800D102E0A06805F06CFBAF
:100A4000E0602069002800D102E0206905F064FB25
:100A50006061F8BD002801D0054B0360002901D07A
:100A6000044B0B60002A01D0034B13607047000059
:100A7000A06D0000F46D0000086E000070B5044623
:100A80000026F64300252088FFF79EFF0546002D2F
:100A900012D0286900280AD0606829698847002890
:100AA00005D02146284601F055FD064608E0012004
:100AB00020831F20608303E0012020831F206083A8
:100AC000304670BDF0B5FFB084B00446002700206A
:100AD00082900025059004900390029000262069E2
:100AE000002802D06069002803D100207FB004B044
:100AF000F0BD20690290A0684C2870D01CDC3A2818
:100B00003FD00CDC1C2832D004DC0B2868D00C2829
:100B100067D175E01E2870D02C28F9D162E04028FA
:100B20006CD004DC3E286AD03F28F1D13CE1462855
:100B30004BD04928ECD124E178283FD00CDC622846
:100B400068D004DC602871D06128E1D170E06B28A6
:100B50006DD07028DCD11EE0792825D08B285FD09D
:100B60009B287CD04B21C901401AD1D12EE1A8A1EC
:100B700006A802F0C4FF06A9029803F0D7FE0746B4
:100B800034E1A9A106A802F0BAFF06A9029803F071
:100B9000CDFE07462AE100F0AFF901460190029828
:100BA00003F0E2FE074621E1A0A106A802F0A7FF9C
:100BB00006A9029803F0BAFE074617E1FF210531A6
:100BC000029803F000FF074610E19FA106A802F07B
:100BD00096FF06A9029803F0A9FE074606E16AE01F
:100BE000C6E0FCE09C48016806A802F088FF06A960
:100BF000029803F09BFE0746F8E0CBE0DDE0A7E0BB
:100C000096A106A802F07BFF06A9029803F08EFECB
:100C10000746EBE00121029803F0D5FE0746E5E028
:100C20000E21029803F0CFFE0746DFE018E096E0C1
:100C30007EA802F072FE002509E0E8B202F04EF94B
:100C4000E9B2024601907EA802F07CFE6D1C292DBF
:100C5000F3D37EA9029803F041FE0746C6E09AE06E
:100C60007EA802F05AFE002505E0E9B200227EA827
:100C700002F068FE6D1C372DF7D300252420684351
:100C8000774946180CE0B068002808D0B068804763
:100C9000002804D0317801227EA802F053FE2436C9
:100CA0003088012189028842EDDB7EA9029803F099
:100CB00015FE07469AE0FFF711FE0390E068002852
:100CC00005D10399029803F07EFE07463FE0E068F5
:100CD000401C002827D1012521E004AA05A92846A7
:100CE000FFF712FE002813D00299C819049A05993B
:100CF00003F055FE829082983F1882983818FF21A1
:100D0000E13188420ADB362060830127FF4309E096
:100D10000520208300206083471E03E06D1C03989C
:100D20008542DAD913E004AA05A9E068FFF7ECFDD3
:100D3000002806D0049A0599029803F030FE074671
:100D400005E0022020832A2060830027FF434DE036
:100D5000FF21E131029803F036FE074646E000F03D
:100D6000A7F801460190029803F0FEFD07463DE01A
:100D700002F000F901460190029803F024FE0746B4
:100D800034E002F0A5F801460190029803F01BFE42
:100D900007462BE02AE0FFF74BFD01460190029841
:100DA00003F011FE074621E003F098FC0146019094
:100DB000029803F008FE074618E003F095FC014690
:100DC0000190029803F0FFFD07460FE005F0EEFBEF
:100DD00001460190029803F0F6FD074606E0022066
:100DE0002083202060830027FF4300BF00BF002F27
:100DF0000CDBA0684C2809D0E068401C002805D016
:100E000002202083322060830027FF4338466DE6AE
:100E10004241436E657420446576656C6F706D6504
:100E20006E74204B69740000555341004241436E7B
:100E3000657420537461636B20617420536F757205
:100E40006365466F7267650062646B2D73746D3302
:100E5000322D6D737470000000000020312E3000C0
:100E60009400002070B5044600250CA1201D02F05E
:100E7000BFFD002808D020780C49087000210846E2
:100E800002F026FF012506E00421FF20E530015392
:100E90001A21801C0153284670BD000073746D3305
:100EA000322D6368616C6C656E6765000C01002013
:100EB0000320704701460120034A914202D8034AA9
:100EC000116000E000207047FFFF3F00000100209C
:100ED00070B5044600252146064802F028FE002889
:100EE00006D12146034802F0BCFD0546FFF7A6FCEB
:100EF000284670BD480C002001480078704700006B
:100F000004010020014604480068884201D1012004
:100F100070470020FCE7000000010020F7B5FEB09C
:100F20000C46154600207D907C907A9000267990A2
:100F30000027FFF7D3FC7A9001262AE07BAA7CA940
:100F40003046FFF7E1FC79907998002820D07C9911
:100F500088B2FFF739FD0746002F19D078690028BD
:100F600016D001A97A697B989047002810D001A972
:100F70007E9802F0DCFD00280AD001207D90002C34
:100F800001D07C982060002D01D07B98286003E080
:100F9000761C7A988642D1D900BF7D987FB002B086
:100FA000F0BDFF200530704770B5044600260025CF
:100FB0002088FFF709FD0546002D1FD0286900286D
:100FC00014D060682969884700280FD0E869002894
:100FD00004D02046E9698847064616E00221FF2032
:100FE000F73001532821801C01530EE00121FF201E
:100FF000F73001531F21801C015306E00121FF201F
:10100000F73001531F21801C0153304670BD000092
:10101000F0B5FBB0044600207A900026002700259A
:10102000FF20F13001596A462046103002F066FA7E
:101030000646002E09DA0221FF20F7300153252150
:10104000801C015300207BB0F0BDA0684C280CD060
:10105000E068401C002808D00221FF20F73001532F
:101060003221801C01530020EDE7A0684F2872D088
:1010700018DC402875D00CDC2C286ED004DC0C2841
:101080006CD01E286BD10EE13E2869D03F28F9D1E3
:1010900043E0462876D04B281FD04C2873D04D28EB
:1010A000F0D188E079286FD00CDC62286DD004DCA8
:1010B00060286BD06128E5D1F0E06B2867D07828F4
:1010C000E0D1E5E08B2873D0982872D09B2871D0AE
:1010D0004B21C901401AD5D1B7E0684680780C2869
:1010E00013D168468088082807D10298FFF7E2FEEE
:1010F000002802D001207A900EE00221FF20F73074
:1011000001532521801C015306E00221FF20F73006
:1011100001530921801C0153D7E0684680780228DA
:1011200011D10198FF2806D80199C8B203F0BCFB81
:1011300001207A900EE00221FF20F7300153252193
:10114000801C015306E00221FF20F73001530921E2
:10115000801C0153B9E099E003E09BE09BE0ACE028
:101160009FE06846807802281AD1019800280FD0A5
:1011700001987F280CD80199C8B203F09DFB01208B
:101180007A9014E085E08BE081E085E087E089E0FB
:101190000221FF20F73001532521801C015306E076
:1011A0000221FF20F73001530921801C01538CE0FC
:1011B00073E079E079E06846807807283DD101A89E
:1011C00002F0AFFC0546002D07D10221FF20F730C9
:1011D00001532521801C015336E03D4802F03AFCC2
:1011E000A84222D901A802F052FC0746062F14DAC1
:1011F0000022114601A8FFF791FE002807D0022126
:10120000FF20F73001533021801C01531CE001A85E
:10121000FFF75EFE01207A9016E00221FF20F730F2
:1012200001532921801C01530EE00221FF20F730D9
:1012300001531421801C015306E00221FF20F730E6
:1012400001530921801C01533FE068468078022841
:1012500014D1E12149020198884207D8019805F08C
:10126000ABF9002802D001207A900EE00221FF2085
:10127000F73001532521801C015306E00221FF2095
:10128000F73001530921801C01531EE000BF00BF4D
:1012900000BF00BF00BF00BF00BF00BF00BF00BF56
:1012A00000BF00BF00BF00BF00BF0221FF20F7301A
:1012B00001532821801C015307E00221FF20F73051
:1012C00001532021801C015300BF00BF7A98BAE669
:1012D000480C00200146002903D00B684A68981A80
:1012E00070470020FCE710B50446002C08D02046CB
:1012F000FFF7F0FF002801D1012010BD0020FCE71E
:101300000120FAE710B50446002C09D02046FFF76B
:10131000E1FFE168884201D1012010BD0020FCE717
:101320000120FAE770B5044600262046FFF7DBFFF0
:10133000002809D1E1686068FEF7E8FE0D46A06864
:10134000465D6068401C6060304670BD002808D073
:10135000002906D0002A04D0002303604360816086
:10136000C2607047F8B504460E460027002C0FD027
:101370002046FFF7C7FF00280AD1E1682068FEF782
:10138000C5FE0D46A06846552068401C2060012718
:101390003846F8BDF0B587B000250026002006903D
:1013A0000A2005900020049003900290F9480078EC
:1013B000FF2802D10020F8490870F8480178491C3C
:1013C000F7480078401CFEF7B7FECDB2F34801782D
:1013D000491CF0480078401CFEF7AEFECEB2EF4844
:1013E0000178491CEF480078401CFEF7A5FEC8B202
:1013F0000690E9480078030001F034FB09065EFB23
:10140000F9F8F7F6F5F4F300E2480078FF283DD14B
:1014100002F05AFEDF480078FF284CD0DD48007803
:1014200001F0FAFEDF49087008460078FF2817D15E
:10143000D84800780870D7480078D9490870322019
:10144000D94908600020D9490870D94800680821A6
:1014500088430830D64908600720CF4908702AE041
:10146000CC480078CE4908700120CF4908600020A0
:10147000CE490870CF490860CD48006808218843EC
:10148000CB4908600520C449087014E0C1480078C1
:10149000C4490870BF480078C14908703220C24969
:1014A0000860C348006808218843C14908600120DA
:1014B000B94908700290A7E3FF20F53005F054F910
:1014C000002819D00020B9490870B94800680221E5
:1014D0008843B74908600846006840084000086033
:1014E0000846006804218843B14908600620AA49DB
:1014F00008700120029073E0AD480078C007C00F6B
:10150000002806D0AA48006840084000A8490860A2
:1015100066E0A74800788007C00F002860D0A64882
:101520000078030001F09EFA07051F4F4150322A50
:101530004F00A2480078FF2800D146E09C48006890
:10154000022188439A49086000209D490870984804
:101550000068082188439649086002208E49087077
:101560000120029031E00020034600908948027873
:1015700094480178022000F0B1FD26E08C48006814
:101580001021884310308A4908601EE088480068AE
:101590001021884310308649086088480078FF2869
:1015A00002D008207C4908700FE08748008880B28C
:1015B00000908648036877480278824801780420C2
:1015C00000F08CFD01E000BF00BF00BF7248007852
:1015D000082805D0764800680221884374490860CD
:1015E00012E30DE39AE2FEE1BCE17CE1A7E04CE00E
:1015F000FFE7774801F065F8002809D075480078C2
:101600006F490870042064490870012002903BE093
:101610006F4801F08EF804462078002801D0052795
:1016200000E00627608800906178231D5948027801
:10163000384600F053FD62480078401C604908704D
:10164000032F11D0042F14D0052F02D0062F0FD155
:1016500010E06078FF2803D104204F49087002E0B1
:1016600003204D49087009E003204B49087005E04C
:1016700000BF00BF04204849087000BF00BF002120
:10168000534801F068F800BFBEE2FF20053005F0C6
:101690006BF8002809D04F480078494908700420A9
:1016A0003D4908700120029048E041480078C00799
:1016B000C00F00280BD03E480068400840003C495D
:1016C00008600420344908700120029036E0384850
:1016D00000788007C00F002830D0384800782D49A6
:1016E000097888421FD134480078042807D006289A
:1016F00009D0072812D104202749087012E00420DD
:10170000254908700EE02A480068102188431030EF
:101710002749086004202049087003E001201E4981
:10172000087000BF02E001201B49087020480068D3
:10173000022188431E4908600120029064E220488B
:10174000007824490978884205DA02201249087095
:1017500001200290C6E0164800780007C00F00285C
:101760003AD1104800780B490978884234D10C48A6
:101770000670002003460090064802780848017869
:10178000012000F0ABFC00200A4908600720024954
:101790000870A7E027010020110100202801002087
:1017A0003801002037010020400100201D010020E9
:1017B000140100203C0100201E0100201C0100201B
:1017C0003601002026010020180100202001002001
:1017D0005814002029010020FA48006831282FD22F
:1017E000F94800780007C00F002811D0F7480078AA
:1017F000B0420DD00020F6490870F2480068401C45
:10180000F04908600220F34908700120029069E065
:10181000EC480068401CEB4908600020034600903B
:10182000ED480278E9480178002000F057FC0020DC
:10183000EA490860EA4908700520E649087051E065
:10184000E248007885423BD1DF4800780007C00FAE
:1018500000281AD0E349069808700020034600903B
:10186000DD48027808460178012000F037FCDA48AC
:101870000078D64908700020D84908600120D14975
:1018800008600720D34908702CE0D3480078D54978
:101890000870002003460090CF480278CB480178BA
:1018A000002000F01BFC0020CC4908600120C54945
:1018B00008600020CA4908700520C649087011E078
:1018C000C8480570002003460090C3480278C54808
:1018D0000178012000F002FC0020C04908600720C8
:1018E000BC49087090E13C2004F03EFF002830D055
:1018F000BA480068002812D1B8480068401CB749AF
:101900000860002003460090B3480278AF48017891
:10191000002000F0E3FB0020B149087021E0B1494C
:1019200006980870002003460090AB4802780846ED
:101930000178012000F0D2FBA7480078A349087085
:101940000020A64908609F4908600720A149087047
:1019500007E0A3480078042803DD01209D490870B2
:10196000029051E19C4800780A214843FF30F5304D
:101970000590059804F0F8FE00282BD096480078D2
:10198000401C0A214843FF30F5300490049804F0CD
:10199000EBFE002805D004F0F1FE01208D4908700F
:1019A00020E0904806700020034600908A480278A4
:1019B0008C480178012000F091FB8748007883492A
:1019C00008700020854908607E4908600720814929
:1019D000087007E082480078042803DD01207D4973
:1019E0000870029010E1784800788007C00F002846
:1019F00037D07D48007878490978884226D17B48DD
:101A00000078022822D170480068082188436E4976
:101A10000860774800786D490870002070490870A8
:101A2000034600906C48027868480178002000F076
:101A300055FB694800786B490870002061490860CF
:101A40006649086005206349087003E00120614988
:101A5000087002905C480068022188435A49086077
:101A60005BE03C2004F080FE002805D15648007859
:101A7000C007C00F002850D0534800780007C00F9F
:101A8000002808D0002052490870022051490870EF
:101A9000012002903BE04D4800784F490978884288
:101AA00012D000204E490870034600904A48027840
:101AB00046480178002000F011FB002047490860EB
:101AC00005204449087022E04348007885420FD041
:101AD000444805700020034600903F480278414882
:101AE0000178012000F0FAFA00203C4908600EE07D
:101AF00035480068082188430830334908600020D1
:101B000033490870022033490870012002902E48A2
:101B10000068400840002C49086075E0354800F036
:101B200008FE0446002C0FD0607861880091019077
:101B30003148008881B2231D2D4802782F48006863
:101B400002F0B8FC039001E0002003900398002805
:101B50001CD02078002801D0052700E006276088E7
:101B600000906178231D1C480278384600F0B6FAD0
:101B7000012018490870144800680221884312495E
:101B8000086000211B4800F0E6FD19E0C82004F0C1
:101B9000EBFD002801D1002C12D00020034600905C
:101BA0000D48027812480178072000F097FA0120CA
:101BB0000849087004480068022188430249086007
:101BC00022E0000040010020140100203701002025
:101BD0003601002011010020270100203C010020D7
:101BE0001D010020380100201C0100201E010020E2
:101BF0002601002058140020180100202001002098
:101C000001200349087000BF00BF029807B0F0BD73
:101C10001101002008B500200090FB480078030067
:101C200000F020FF05042C72FEFDFC0004F07AFD9C
:101C300000280BD004F0A2FDF4480078FF281CDA3D
:101C4000F2480078401CF149087016E0684604F03C
:101C5000F9FC002811D004F091FDEC480078FF2831
:101C600004DAEA480078401CE849087068460078C1
:101C7000552802D10120E449087021E21E2004F019
:101C800073FD002803D00020DF4908703BE004F01A
:101C900049FD00280ED004F071FDDC480078FF28D3
:101CA00004DADA480078401CD84908700020D64988
:101CB000087028E0684604F0C5FC002823D004F032
:101CC0005DFDD2480078FF2804DAD0480078401C37
:101CD000CE49087068460078FF2809D10020CC4919
:101CE0000880FF20CB4908700220C74908700AE02D
:101CF00068460078552803D10120C349087002E0E6
:101D00000020C1490870DBE11E2004F02DFD0028F1
:101D10000AD0C148006840084000401CBE49086025
:101D20000020B9490870FDE004F0FCFC002815D043
:101D300004F024FDB5480078FF2804DAB3480078A1
:101D4000401CB2490870B448006840084000401C7C
:101D5000B14908600020AC490870E3E0684604F02F
:101D600071FC0028DFD004F009FDA8480078FF28A6
:101D700004DAA6480078401CA4490870A4480088EA
:101D800000280FD1A348017868460078FEF731FD9E
:101D9000A049087068460078A049087001209C4955
:101DA0000880BFE09A48008801280FD1994801783F
:101DB00068460078FEF71DFD964908706846007871
:101DC00097490870022092490880ABE0904800884B
:101DD00002280FD18F48017868460078FEF709FD88
:101DE0008C490870684600788E490870032088493D
:101DF000088097E086480088032814D18548017838
:101E000068460078FEF7F5FC82490870684600785D
:101E100000028549086004207D4902E04CE183E02E
:101E200081E008807EE07A480088042812D1794851
:101E3000017868460078FEF7DCFC764908707A483D
:101E400001686846007808187749086005207049DD
:101E5000088067E06E480088052859D16D480178F0
:101E600068460078FEF7C5FC6A49087008460078A5
:101E700055280AD06848006840084000401C664960
:101E800008600020604908704CE06748006800283E
:101E90001CD16348007865490978884203D06048BE
:101EA0000078FF2807D15C48006802218843801C25
:101EB0005949086006E05848006804218843001D1D
:101EC000554908600020504908702BE054480078BC
:101ED00056490978884203D051480078FF280DD12F
:101EE0005148006852490988884203D8032046496E
:101EF000087006E004204449087002E004204249CA
:101F00000870002042490880401E4A49088009E0C4
:101F10004148006840084000401C3F4908600020DC
:101F200039490870CCE000BF1E2004F01DFC0028D9
:101F30000AD03948006840084000401C3649086013
:101F4000002031490870B6E004F0ECFB002815D001
:101F500004F014FC2D480078FF2804DA2B480078A0
:101F6000401C2A4908702C48006840084000401C6A
:101F7000294908600020244908709CE0684604F064
:101F800061FB00282AD004F0F9FB20480078FF28E4
:101F900004DA1E480078401C1C4908701C48008860
:101FA0002149096888421AD2224801886846007887
:101FB000FEF708FC1F490880154800881C4909885D
:101FC000884206DA684600781B490968104A128878
:101FD00088540F480088401C0D4908806BE00C486D
:101FE000008811490968884228D11248018868464A
:101FF0000078FEF7E7FB0F49088005480088401C81
:102000000349088057E00000100100201D01002056
:102010003401002032010020140100201E010020A4
:102020001C010020260100201801002027010020AB
:1020300024010020300100202001002021480188D7
:1020400021480068401C81422BD120480188684605
:102050000078FEF7B7FB1D490880084600881C4938
:10206000884213D11B480078032807D11A4800681A
:1020700002218843801C184908600EE01648006859
:1020800004218843001D1449086006E012480068D6
:1020900040084000401C1049086000200D490870AD
:1020A00009E00D48006840084000401C0A490860EB
:1020B00000200849087003E000200649087000BFAE
:1020C00000BF08BD340100201801002030010020AD
:1020D000B8F000001001002014010020FFB581B00D
:1020E0000A9DFF200090374F0026374800F0A9FADC
:1020F0000446002C62D055202071FF2161710198A7
:10210000A071A0790099FEF774FB00900298E0712D
:10211000E0790099FEF76DFB009003982072207A19
:102120000099FEF766FB00902846E917090E09188A
:1021300009040A0E6272607A0099FEF75AFB009059
:102140002846E917090E091809120902691AA1722D
:10215000A07A0099FEF74DFB00900098C043E07212
:1021600008202080002D24D000BF0DE00499885D58
:102170003946FEF727FB07460498815D3046083054
:10218000221D1154701C86B2AE42EFDBF84387B2B9
:1021900028460830221D1754FF2000023840011243
:1021A0002846093011542088401920802088801C3E
:1021B00020802146044800F058FA00E0002405B0D1
:1021C000F0BD0000FFFF00003010002010B500BF80
:1021D00039480078002806D0012812D0022829D0DA
:1021E00003285BD147E0354800F06BFA002807D19F
:1021F000324800F09EFA3249086001202E490870EA
:1022000050E004F0C3FA002813D0012004F08CFA47
:1022100000202B4909684880294909684A882849CB
:102220000968091D885C04F029FA02202249087017
:10223000CEE737E004F030FA00281BD020480068D1
:102240004088401C1E49096848801D480068408835
:102250001B4909680988884209DA194909684A88C6
:1022600017490968091D885C04F008FAB0E70320E3
:102270001149087016E004F00FFA00280DD004F0A0
:1022800015FA002809D0002004F04EFA00210B486E
:1022900000F061FA00200849087003E000200649B8
:1022A000087000BF00BF04480078002801D001205A
:1022B00010BD0020FCE700002A01002030100020A3
:1022C0002C01002010B5002819DA1A4A03071B0F49
:1022D000083B9B089B00D2588307DC0EFF23A340DA
:1022E0009A438B071B0E8407E40EA3401A43114B3D
:1022F0000407240F083CA408A4001A5118E00E4A51
:1023000003231B02D21883089B00D2588307DC0EDC
:10231000FF23A3409A438B071B0E8407E40EA340C0
:102320001A43054B032424021B198408A4001A51E4
:1023300010BD00001CED00E000E100E010B5FF2042
:10234000013003F00BFD00280CD0FF20013003F01A
:1023500010FD012003F014FD01200C4948700020FD
:1023600001F01AFCFF20053003F0F8FC00280BD028
:10237000FF20053003F0FDFC022003F001FD0120E9
:102380000249887001F008FC10BD000078010020AF
:1023900030B5014600200023002202290FD200BFE1
:1023A0000AE00C01064D6419A35CFF2B03D00C015D
:1023B0006419A05C02E0521C102AF2D300BF30BDA9
:1023C000260C0020FFB589B00F461C4600250020D2
:1023D000089000263548E268A16803F0F0FF054642
:1023E0000B982B463A4631490090099803F0CAFAF7
:1023F00008900898002804D136206082B01E0DB0E5
:10240000F0BD761900250121684681831F21C18313
:102410002188818060680290A0680390E068049041
:1024200022480590FF20E130069001A8FEF726FB28
:102430000546002D22DAA81C002802D0E81C00283E
:1024400004D16846C08B60822846D8E76846C28BB4
:10245000818B164803F0CBFF05460B98BA192B4623
:1024600012490090099803F08DFA08900898002806
:1024700019D1362060820120C043C0E7B819401C42
:102480004019401C0B99884208DABA19099950186A
:102490002A46064903F0C8FF054604E0362060825C
:1024A0000120C043ABE776193046A8E7C8050020F5
:1024B000F8B503460C460020C0435968DD685E69E4
:1024C0000096082C18D18A4203D297001E68F05952
:1024D00021E04E19964204D9521A97009E68F0598D
:1024E00019E04F19009EBE19964214D94E19921B3D
:1024F00097001E69F0590EE0692C05D18A420AD274
:1025000097001E68F05906E0502C04D1AA4202D26E
:1025100097009E68F059F8BD10B5024600200829C2
:1025200005D15468D368E4185369E01806E06929B6
:1025300001D1506802E0502900D1D06810BD0000E0
:1025400010B503220021024803F0FCFC10BD00007E
:1025500000B00040F0B5F9B005460C460026F64341
:1025600000272069002802D06069002802D10020DD
:1025700079B0F0BD2769A0684B2804D04D281AD047
:102580004F2845D133E0E068401C002806D00220E7
:102590002083322060830026F6430BE02088082841
:1025A00002D121480068606021883846626802F0E4
:1025B000F6F9064634E0E068401C002806D0022008
:1025C0002083322060830026F6430FE017A101A884
:1025D00001F095FA6869002803D0606801A96A696A
:1025E000904701A9384602F0A1F9064618E0E068D4
:1025F000401C002806D00220208332206083002661
:10260000F64304E02188384602F0AEF9064607E0BA
:10261000A869002803D02046A9698847064600BF5C
:1026200000BF3046A4E700000001002000000000C9
:102630000146002903D0CB680A69981A7047002028
:10264000FCE770B504460025002C0CD0204600F0B5
:1026500047F8002807D12568A168E068FDF756FD16
:10266000606841434D19284670BDF8B504460D46D3
:1026700000270026002C15D0204600F031F8002855
:1026800010D12668A168E068FDF740FD606841430D
:102690008E19AE4206D1E068401CE060204600F092
:1026A00003F801273846F8BD30B50446002C07D0A2
:1026B0002046FFF7BDFF05466069A84200D265616C
:1026C00030BD10B50446002C08D02046FFF7B0FFFF
:1026D000002801D1012010BD0020FCE70120FAE70D
:1026E00010B50446002C09D02046FFF7A1FFA168D1
:1026F000884201D1012010BD0020FCE70120FAE74B
:10270000F8B504460E4617461D4600200090002CE2
:102710000DD0284602F071FF002808D00020E060AC
:10272000206126606760A5606061012000900098CC
:10273000F8BD70B5044600252046FFF7C2FF00280B
:1027400007D12568A1682069FDF7E0FC6068414376
:102750004D19284670BDF8B504460E46002000907D
:1027600000272046FFF7ADFF002816D12768A16893
:102770002069FDF7CBFC60684143CF19002E07D0DC
:10278000002502E0785D70556D1C6068A842F9D89C
:102790002069401C2061012000900098F8BD0000D5
:1027A000FFB581B004460E46174600BF1E480078AC
:1027B000002801D100F01EF900BF1B480069A042AB
:1027C0002DD90020009000F01DFC002C1AD01820FC
:1027D0006043154918310E50182060434018476077
:1027E00018206043104A1832801804998160002232
:1027F000182060430C4918314018026118206043CA
:102800004018C26018216143074A183289180A9893
:10281000486100BF002000F0FAFB002501E0002520
:10282000ED43284605B0F0BDBC03002010B50348B9
:102830000188012003F000FC10BD0000A001002071
:1028400010B503484188022003F0F6FB10BD0000DC
:10285000A001002010B503488188032003F0ECFBA1
:1028600010BD0000A001002010B50348C18804205D
:1028700003F0E2FB10BD0000A001002010B50348EA
:102880000189052003F0D8FB10BD0000A001002045
:1028900070B588B00446002500266A4603A9204684
:1028A00002F057FE05462B462246694603A801F072
:1028B000B1FF064608B070BDFFB5FFB08CB005464D
:1028C0000E46174600208A9000248490684601F046
:1028D000D1FE01F085F9002802D17FB010B0F0BD23
:1028E00085A801F0B1FE0022114605A803F040F9C9
:1028F00005AB6A4685A90F4803F04AF9044608214A
:1029000068460184099506850B970CA88E9901F0FD
:10291000A8F80849081908A902F04AFE8A908A987E
:1029200024182346034A05A985A801F073FF849063
:1029300000BFD2E7A807002010B502F085FE0028EE
:1029400005D0104810494860C8131049886102F04A
:102950005FFE002802D001200D49886002F0AAFE27
:1029600000280ED00B480068012807D00A48094902
:10297000086000BF074800680128FBD1C020054956
:10298000486110BDDFFF07C000050040006C00403B
:102990000006004000EC06407593000010B50448A6
:1029A0000068401C0249086003F076FF10BD00007B
:1029B0006801002010B506488068002806D0054848
:1029C0008069C4B221460448FEF7CCFC10BD00006B
:1029D0000021004000250040A416002030B5044628
:1029E0000120A5788D4204D00020022515800925FC
:1029F0001D8030BD10B5124C02202061606111A015
:102A0000A0611349E1610121490221620021A16213
:102A10006162E1620BA0A0640E49E16410212165AE
:102A20000021A1656165E1650BA1E01DFDF7D5FB06
:102A30000AA12046FDF7D1FB2020A07110BD0000A7
:102A4000BC0300205465726D696E616C000000006B
:102A5000AC010020AC0300205254540053454747BA
:102A60004552000030B47446641E2578641CAB42A5
:102A700004D3635D5B00E31830BC18471D46F8E7DC
:102A800002E008C8121F08C1002AFAD17047704737
:102A9000002001E001C1121F002AFBD1704700B5E0
:102AA000014600200A46333A1300FFF7DBFF060415
:102AB00006080A0C0F0E01200AE0022008E003209D
:102AC00006E0042004E0402002E000BF002000BF38
:102AD00000BF00BD30B504460020002C09D0002BFB
:102AE00002D07125257001E0702525706170A270FB
:102AF000032030BD70B50446002501F067F80028BA
:102B000009D0112C02D0142C02D100E000BF01E04A
:102B1000012500BF00BF284670BDFFB581B0044647
:102B20000F4615460026207808210840C008287066
:102B3000207804210840800868702078022108402D
:102B40004008A870607801F085F96860607801F04D
:102B500061F9A860A078287303262878002809D096
:102B60003046711C8EB2205C68733046711C8EB288
:102B7000205CA8733046711C8EB2215C04980170F1
:102B8000A1190A980160B81B81B20B9801803046E8
:102B900005B0F0BDF7B592B00C46164600200E9079
:102BA0000F90109011900C900D900B9000210A91B5
:102BB00009900891002507910690059004900390D4
:102BC0000290002C6DD02078F02108400107090FF9
:102BD000002967D100110300FFF744FF0805395CA5
:102BE00099FAFBF4F36408A809A90AAB0EAA0091AC
:102BF000019031462046FFF790FF08A8007AFFF7C2
:102C000079FF002800D052E108A8007A1E2811DAC6
:102C100008A8007A8000A749085800280AD008A808
:102C2000007A80000F580EAB6846018C129A099802
:102C3000B8470BE0A0480068002807D00EAB6846F4
:102C4000018C9D4F129A09983F68B8472FE161782F
:102C50000A91A01C0990B01E81B2089108A8007AC0
:102C600000F08EF9002800D021E108A8007A0B2896
:102C70000FDA08A8007A800090490858002808D088
:102C800008A8007A80000B586846018C129A0998AF
:102C900098470CE160780B90A1780A9108A8007A17
:102CA00001E005E102E10300FFF7DCFE1D10111257
:102CB0002E2E132E2E16172E182E2E2E191A1B2ED0
:102CC0001D1C2E1E2E2E1F2E15142E0000BF00BF01
:102CD00000BF00BF00BF00BF00BF00BF00BF00BFFC
:102CE00000BF00BF00BF00BF00BF08A8007A80007F
:102CF00073490858002806D008A8007A80000A58AE
:102D00000B991298904700E000BF00BFCFE02078F9
:102D100008210840C10808A801742078042108404F
:102D2000810808A84174617881740B910225007CA8
:102D3000002809D028466D1C215C08A8C1742846CB
:102D40006D1C215C08A8017528466D1C215C0A9148
:102D500060190990701B81B2089108A8007AC01E02
:102D60000300FFF77FFE1B0F1032121332321432B2
:102D70001516173232321932321A321B1C321832FF
:102D80003211320000BF00BF00BF00BF00BF00BF54
:102D900000BF00BF00BF00BF00BF00BF00BF08A84A
:102DA000007A800046490858002809D008A8007A0F
:102DB00080000F580CAB6846018C129A0998B847EE
:102DC00004E05FE04FE004E002E000BF00BF6EE01F
:102DD0006DE060780B90A1780A91032508A8007A2D
:102DE000122806D16019002100F0FDFF002800D054
:102DF0006D1C601906AA07A901F0A7F8451960190A
:102E000004AA069900F0B1FF4519601906AA07A99E
:102E100001F09BF84519601905AA069900F0A5FF75
:102E2000451908A8007A122806D16019002100F07F
:102E3000AEFF002800D06D1C08A8007A1E2811DA09
:102E400008A8007A80001F49085800280AD0059871
:102E500083B2049882B208A8007A80000F580B99B8
:102E60001298B84723E060780B90A078039016483A
:102E70000068002805D0144B039A0B9912981B6820
:102E8000984714E02078C007C00F029060780B903C
:102E9000A07803900D480068002806D00B4F029BD5
:102EA000039A0B9912983F68B84700E000BF00BF33
:102EB00015B0F0BD340400203C000020AC0400201C
:102EC000D8040020500500204400002040000020CD
:102ED00001480078704700001200002030B502461B
:102EE000002100200023292A24DA00BF0CE0124C24
:102EF000645C944207D101238C00104D2C59002CA6
:102F000000D0012002E0491C1E29F0DB00BF002B8D
:102F100010D100210BE00A4C645C944206D18C0075
:102F2000084D2C59002C00D0012002E0491C0B292F
:102F3000F1DB00BF30BD000013000020340400208E
:102F400031000020AC0400201E2802DA8200014B70
:102F500099507047340400200B2802DA8200014B9C
:102F600099507047AC040020014908607047000088
:102F70003C0000200148008870470000100000203D
:102F800070B50446002500F021FE002801D001257F
:102F900009E000F02FFE002805D0082C00D101E048
:102FA000012500BF00BF284670BD000000BF00BF64
:102FB00000BF00BF00BFBFF34F8F00BF00BF00BF07
:102FC00006480749C86000BF00BF00BFBFF34F8F6E
:102FD00000BF00BF00BF00BF00BFFDE70400FA054F
:102FE00000ED00E03EB50446002000900190029004
:102FF00002946A4600210248FFF7D8FF3EBD000058
:103000000140000000B5024600F006F800BD00B522
:10301000024600F00BF800BD72B603480068401C81
:1030200001490860704700000C0000200548006856
:10303000401E0449086008460068002800D162B6B6
:10304000704700000C000020014800787047000025
:103050006E00002010B5FDF783F804466021FDF7EF
:103060006BF82031C8B20749087007480749088043
:10307000044800780A214843044909884018034954
:10308000088010BD6E000020F406000070000020D3
:1030900001490870704700006E00002001460020C2
:1030A000802912DA094A525C9207D20F002A0BD10A
:1030B000064A525C1207D20F002A05D1034A525C1D
:1030C0005207D20F002A00D001207047A209002029
:1030D000802806DA0349095C02229143891C014ACF
:1030E00011547047A2090020014800787047000081
:1030F0007300002001490870704700007300002031
:1031000070B50024002500BF08E0204600F03AF822
:10311000002801D0681CC5B2601CC4B2802CF4DB4E
:10312000284670BDF8B5054600240026FF2700BFDD
:103130000CE0204600F026F8002805D0AE4201D170
:10314000274605E0701CC6B2601CC4B2802CF0DBC0
:1031500000BF3846F8BDF8B500240025FF26FFF76C
:10316000CFFF0446002C0AD0FCF7FAFF07462146A1
:10317000FCF7E2FFCDB22846FFF7D4FF0646304603
:10318000F8BD000070B504460025802C0BDA074816
:10319000005DC007C00F002805D02046FFF77EFF66
:1031A000002800D10125284670BD0000A20900209A
:1031B00010B5002400BF22E01548005D04218843BB
:1031C000134908550846005D0221884310490855F7
:1031D0000846005D400840000855202C07DA0846E4
:1031E000005D0821884308300949085505E0084872
:1031F000005D0821884306490855601CC4B2802C34
:10320000DADBFFF727FF00200249087010BD00003D
:10321000A20900207200002030B502460023FF24DE
:103220000021501CC5176D0E2D18ED11ED01451B29
:10323000E9B200BF11E00B48405C4007C00F002816
:1032400001D00C460BE0481CC5176D0E2D18ED1172
:10325000ED01451BE9B2581CC3B2802BEBDB00BF6C
:10326000204630BDA20900200148007870470000C8
:103270007200002010B50446802C13DA0A48005D65
:10328000C007C00F002806D0FFF73AFF002802DD74
:103290000120064908700448005D40084000401CB9
:1032A0000149085510BD0000A2090020720000204D
:1032B000014800887047000070000020802806DA6E
:1032C0000349095C04229143091D014A11547047C6
:1032D000A209002000B502461020982A71D00CDC0B
:1032E000352A3DD004DC022A21D0262A6AD13EE0CC
:1032F000662A6FD0842AF9D14BE0D32A5CD0D42A35
:1033000004D0D62A04D0DA2AF0D100E000BF00BFF2
:10331000002904D0012903D0022905D102E000BF11
:10332000022002E0042000E000BF00BF70E00B00BC
:10333000FFF798FB090607090B130C0D0F1012007D
:1033400000BF0C200AE0092008E000BF00BF0220F7
:1033500004E000BF012001E000BF00BF00BF57E054
:10336000002901D10C2000E000BF00BF50E000297F
:103370000BD0012904D0022908D0032904D101E08F
:103380000C2004E0022002E000BF00BF00BF00BF2D
:103390003EE0002906D0012907D0022907D00329E1
:1033A00007D100E000BF0C2004E0092002E0022069
:1033B00000E000BF00BF2BE0002905D0012906D1A5
:1033C00003E012E023E005E000BF0C2000E000BFB6
:1033D00000BF1DE0002902D0012903D101E00C202B
:1033E00001E000E000BF00BF12E00B00FFF73AFB76
:1033F00005040506080A0C0000BF06E0012004E0F1
:10340000022002E0042000E000BF00BF00E000BF97
:1034100000BF00BDF7B586B005460E460027002068
:1034200005900024049003900290019028784007B2
:10343000400F06285FD1281901AA04A900F085FDD4
:103440000746E4196846007C0390012002904EE094
:10345000285D4007400F06280FD1281901AA04A9AA
:1034600000F073FD07466846017C039881422AD12B
:103470000298401CC0B2029025E0285D4007400F32
:1034800007280FD1281901AA04A900F05EFD0746FC
:103490006846017C0398814215D10298401EC0B253
:1034A000029010E0285D08210840082806D1311B51
:1034B0002819089A00F079F8074604E0311B28190A
:1034C00000F051F80746E4190298002809D0002FAF
:1034D00003DD0598C019059003E00020C043059066
:1034E00008E0B44203D90020C043059002E00298EE
:1034F0000028ADD100BF059809B0F0BDFEB5054666
:103500001446002600270020029001900090002D14
:1035100027D0002C25D0287808210840082820D062
:10352000002020706A4601A9284600F00EFD0746DB
:10353000002F12D0F61969460879A070A819234601
:103540000979009A00F063F80290A078102802D060
:103550000298361801E00026F6430021FF20E530EE
:1035600001513046FEBDFEB5044600250026002769
:10357000002001900090002C15D0207808210840F0
:10358000082810D06A4601A9204600F0DEFC064655
:10359000002E08D0AD19601969460979009A00F02B
:1035A00093F80746ED192846FEBDF0B585B00446F0
:1035B00016460025002003900027029001900090FD
:1035C000002C21D020780821084008281CD101AA0D
:1035D00002A9204600F0B9FC0746002F14D03D4652
:1035E0006846017A3046FFF775FE00900098102873
:1035F00008DA6019019A009900F066F803900398C0
:103600002D1801E001982D18284605B0F0BDFEB533
:1036100007460D4616461C4600200290002F44D057
:10362000002C42D0072D1FD006DC012D09D0022D21
:103630000CD0042D37D110E0092D1CD00C2D32D127
:1036400020E0304600F078FB20712DE0221D31464D
:10365000384600F0C8FC029026E0221D314638466C
:1036600000F050FC02901FE0221D3146384600F069
:1036700069FB029018E0221D3146384600F075FBC8
:10368000029011E000210191002000906B4601AAF8
:103690003146384600F018FC029068468088A080C9
:1036A0000099A16000E000BF00BF0298002809D186
:1036B000002D07D0012D05D0062D03D0002C01D000
:1036C0001020A0700298FEBD10B504460020002C0A
:1036D0001AD00B00FFF7C6F90D08090A0B0C0D0EE6
:1036E0000F101112131416000DE00CE000BF00BF04
:1036F00000BF00BF00BF00BF00BF00BF00BF00BFD2
:10370000104600E000BF00BF10BDFFB581B0044609
:103710000E4617460025002C0ED0502020706670F3
:10372000A77003256019049901F01EF94519601965
:103730000A9901F019F94519284605B0F0BD30B5D0
:1037400002460B46002100249A4201D1012030BDDF
:1037500010891D89A84201D00020F8E7907A9D7A4F
:10376000A84201D00020F2E7947A072C00DD07245C
:1037700000210BE010460B30455C18460B30405CD6
:10378000854201D00020E2E7481CC1B2A142F1DB32
:103790001089002817D110781D78A84201D0002088
:1037A000D5E71478072C00DD0724002109E0501C20
:1037B000455C581C405C854201D00020C7E7481C8E
:1037C000C1B2A142F3DB0120C1E7000010B5FF2028
:1037D00001F052F87F2001F06FF8002000F060FF48
:1037E0000020FDF739F81348FFF7BEFB1249082007
:1037F000FFF7B2FB11490720FFF7AEFB10490C2081
:10380000FFF7A2FB0F490E20FFF79EFB0E49142085
:10381000FFF79AFB0D490F20FFF796FB0C4911208B
:10382000FFF792FB01210B4803F0C3F80A48FFF7AA
:103830002FF810BD51530000F9530000A5530000AC
:10384000214E0000714F00008552000049540000D5
:103850003D4D000078000020A8070020F0B587B09B
:103860000020019000251EE02846FCF725FD0746B4
:10387000002F16D12846FCF74DFD01902846FCF795
:1038800033FD0646002E07D00198012802D1002002
:10389000019001E0012001900198012800D100E091
:1038A00000BF681CC5B2022DDEDB0E4803F057F8DE
:1038B000002805D00B4803F06BF8012000F020FA37
:1038C000002381229200084902A800F013FF044659
:1038D000002C04D02246044902A802F001FA07B0E5
:1038E000F0BD000078000020220A00200146087880
:1038F000704730B5014600240023002208780028D4
:1039000009D00878401EC2B21046D5176D0F2D1889
:10391000EB105B1C1C46204630BD014600220A709D
:10392000002003E000234A1C1354401C0F28F9DB3D
:10393000704702460020002A03D00F2901DA531CE9
:10394000585C704770B514460D46CE17760F761941
:103950007605320E01230F2A16DA06784D1CAE4288
:1039600000DA0570D5004E1B1D46B540EBB2002CA9
:1039700005D0451CAD5C1D43461CB55404E0451CF8
:10398000AD5C9D43461CB55470BD01460020CA077E
:10399000D20F002A01D08022104302220A40002ABE
:1039A00001D04022104304220A40002A01D02022E4
:1039B000104308220A40002A01D01022104310228E
:1039C0000A40002A01D00822104320220A40002A7F
:1039D00001D00422104340220A40002A01D00222D2
:1039E000104380220A40002A01D001221043704770
:1039F000F8B504460D460027002D1AD0002C18D02B
:103A00002846FCF7E3FB2168884221D12079002871
:103A10001ED10127002606E0A95D601D805D814260
:103A200000D00027761C2068B04211D9002FF3D1B6
:103A30000EE0002D06D02846FCF7C8FB002807D171
:103A4000012705E0002C03D02068002800D10127C1
:103A50003846F8BD01460020002901D0FF20DA30A9
:103A60007047F8B505460C46204600F05AF8064661
:103A7000204600F08AF80746204600F008F8334652
:103A80003A4601460090284600F007F8F8BD014686
:103A90000020002900D008797047F8B504460D468B
:103AA00000200090002C28D020602571FF20DA3003
:103AB000834222D8002A14D000210DE0994207D277
:103AC000505C671D2668B8552068401C206002E0E5
:103AD0000026601D4654491CFF20DB308142EDD397
:103AE00009E0002103E00026601D4654491CFF2028
:103AF000DB308142F7D3012000900098F8BD70B50B
:103B000005460C46002C03D02046FCF75FFB00E086
:103B1000002006463346224600212846FFF7BDFF17
:103B200070BD01460020002900D00868704730B5FC
:103B30000246002000291AD0002A18D00C68156807
:103B4000AC4221D10C791579AC421DD10120002362
:103B500007E04C1DE55C541DE45CA54200D000204C
:103B60005B1C0C689C420FD90028F2D10CE00029A4
:103B700004D00C68002C07D1012005E0002A03D0F6
:103B80001468002C00D1012030BD0146002000291E
:103B900000D0481D7047000070B50546002D01D1CA
:103BA000094C01E0084C08340AE0204601F0ACFD65
:103BB0000646002E00D104E028467168884700BF01
:103BC000F3E700BF70BD00008001002003480078CB
:103BD000012800D170470020FCE700004C000020C5
:103BE00003480078002801D1012070470020FCE73D
:103BF0004C00002003480078022801D101207047C2
:103C00000020FCE74C000020FFB583B005460F46BE
:103C1000164600240020029001900090002F54D0FE
:103C20002819002100F0C9F8002810D0281901AA8D
:103C300002A900F08AF9041928196A46019900F0CE
:103C4000D2F90419002E06D00098308003E0002E2F
:103C500001D0002030802819012100F0AEF80028A2
:103C600002D1401E07B0F0BD281901AA02A900F038
:103C70006CF9041928196A46019900F076F80419BC
:103C80000698002803D00098C1B206980170BC4283
:103C900014D22819022100F090F8002801D1401E0A
:103CA000E0E7281901AA02A900F04FF90419281920
:103CB0000C9A019900F046F8041906E00C980028C7
:103CC00003D000210C98FFF71AFF2046CAE7000036
:103CD00010B502460020032A0CDA074B1A70002A9E
:103CE00003D10023054C236003E03C234B43034CEA
:103CF0002360012010BD00004C000020480000207F
:103D00000B490968002912D009490968814205D97F
:103D100007490968091A064A116002E00021044AAD
:103D2000116003490968002901D1024A11707047E6
:103D3000480000204C00002001460020002900D04F
:103D400001207047F8B504460D4616460020009045
:103D500000276B1E2178621C3046FFF79EFE074647
:103D6000002F00D000950098F8BDF8B505460E4626
:103D70001446002000906A463146284600F033F988
:103D80000746002C01D0009820603846F8BD38B5B1
:103D900004460D46002000906946204600F0C1F818
:103DA00020784007400F072805D168460078A842D0
:103DB00001D1012038BD0020FCE738B504460D468E
:103DC000002000906946204600F0ABF820780821DA
:103DD0000840082805D168460078A84201D1012092
:103DE00038BD0020FCE738B504460D4600200090A1
:103DF0006946204600F095F820784007400F0628D5
:103E000005D168460078A84201D1012038BD0020C4
:103E1000FCE7000000B5014600200A07120F13005E
:103E2000FEF720FE060406080A0D101232200CE0F0
:103E300080200AE0CE2008E0FF20E13005E00120EC
:103E4000800202E0024800E000BF00BF00BD0000A9
:103E5000C405000000B501460020F0220A40130707
:103E60001B0F002B18D112111300FEF7FBFD0805E4
:103E700007090B0D0F11131500200EE002200CE0B6
:103E800004200AE0082008E0102006E0202004E0DA
:103E9000402002E0412000E000BF00BF00BDF8B5B7
:103EA00006460C461546002000900027694630461D
:103EB00000F0ECF807460098800D20800098800202
:103EC000800A28603846F8BDF8B507460C46154606
:103ED0001E46042C01D00020F8BD32462946384643
:103EE000FFF7DDFFF8E708B50246D37868460370B0
:103EF00093784370537883701378C3700098086088
:103F0000042008BD70B506460C461546042C03D0A7
:103F100000202860204670BD29463046FFF7E3FFA9
:103F2000F9E710B5024601201378F0242340F02B66
:103F300005D1002901D053780B70401C04E0002902
:103F400002D013781B110B7010BDFEB506460F464C
:103F50001446012539463046FFF7E3FF0546307821
:103F60004007400F052822D1705DFF280AD16D1C43
:103F70007019694600F08AF84519002C31D0009874
:103F800020602EE0705DFE280BD16D1C701901A918
:103F900000F055F84519002C23D068468088206031
:103FA0001FE0002C01D0705D20606D1C19E030789E
:103FB0004007400F062804D1002C02D000202060CA
:103FC0000FE030784007400F072804D1002C02D0C2
:103FD0000020206005E0002C03D030784007400F1F
:103FE00020602846FEBDF8B506460D461446002062
:103FF0000090002C21D0012D06D0022D07D0032DDA
:104000000DD0042D15D10FE03078206014E0694602
:10401000304600F014F86846008820600CE0214625
:10402000304600F01BF807E02146304600F02EF83D
:1040300002E00020206000BF00BF2846F8BD024615
:10404000002909D010780002FF231B0218400880C5
:1040500008885378184308800220704710B502463C
:10406000002911D010780004FF231B0418400860B9
:1040700053781B02FF242402234008681843086079
:104080009378086818430860032010BD10B50246F5
:10409000002917D010780006000E0006086053783B
:1040A0001B04FF2424042340086818430860937805
:1040B0001B0224122340086818430860D37808685C
:1040C00018430860042010BDFEB5002400200290B3
:1040D000019000250026EE4800780300FEF7C2FCA0
:1040E000050468E5FEFDFC00EA4800788007C00F83
:1040F000002805D1E74800784007C00F002822D0EB
:10410000E448006802218843E249086008460068E4
:1041100004218843DF490860DF480078FEF7D8FFB4
:10412000DE480078002802D001280AD104E0DA48ED
:104130000078FFF7C3F805E0D9480078FFF79AF850
:1041400000E000BF33E0D3480078C007C00F00286C
:1041500006D0D048006840084000CE49086026E0FC
:10416000FFF782F8002814D0FEF7F5FF044620463A
:10417000FFF708F8002806D02046FEF789FF012047
:10418000C349087013E0FFF713F80020C049087016
:104190000DE0FFF78DF8074602F0E6FA002806D09A
:1041A000FEF752FFBC4908700320B94908706DE161
:1041B000B84800788007C00F002805D1B5480078BE
:1041C0004007C00F002856D0B2480068022188433B
:1041D000B04908600846006804218843AD4908607A
:1041E000AE4800780300FEF73DFC07370544233650
:1041F00035344400FEF728FF0446A748007884427F
:1042000005D1FEF7D5FF0020A14908700FE0A448B2
:10421000007884420BD100200346224600909E483D
:1042200001780220FDF75AFF02209949087021E029
:10423000FEF70AFF04469A480078844203D0964865
:104240000078844204D1FEF7B3FF00209049087043
:1042500010E000BF00BF00BFFEF7F6FE04468E4828
:104260000078844204D1FEF7A3FF0020884908703B
:1042700000E000BF18E087480078C007C00F0028A2
:1042800006D08448006840084000824908600BE07E
:10429000FFF70EF8074602F067FA002804D0FEF791
:1042A00087FF00207A490870F0E07A48007880079C
:1042B000C00F002805D1774800784007C00F0028BC
:1042C0002FD074480068022188437249086008466C
:1042D00000680421884302E0D7E05CE03BE06D49E0
:1042E00008606E480078002814D1FEF7ADFE044641
:1042F00069480078844205D1FEF75AFF00206449DE
:10430000087006E066480078844202D103206049C4
:10431000087005E0FEF74CFF00205D49087000BF03
:1043200018E05C480078C007C00F002806D0594844
:10433000006840084000574908600BE0FEF7B8FFEE
:10434000074602F011FA002804D0FEF731FF0020E2
:104350004F4908709AE0FEF777FE0446FCF721FE0D
:104360000190694689884F4800F0C0FCFCF7B0FA1C
:1043700002904C48801C029900F0CFFC0620494B6B
:1043800022460090444801780320FDF7A7FE042050
:104390003F4908707AE03F480078C007C00F002806
:1043A00007D03C480068400840003A4908600126B0
:1043B00045E0384800788007C00F002805D135480F
:1043C00000784007C00F002832D032480068022130
:1043D00088433049086008460068042188432D4915
:1043E0000860FEF731FE04462D48007884421DD156
:1043F0002D480068062819D301A92C480068FFF74A
:104400001EFE02A929480068801CFFF73FFEFCF74A
:10441000C8FD69468988884206D1FCF759FA029995
:10442000884201D101250AE0012608E0012606E0C4
:10443000FF202D3002F098F9002800D00125002D32
:104440001BD0FEF701FE1A49087008460078FEF7F7
:10445000E3FE1349087008460078802809DA002036
:104460000346009012480278084601780020FDF7C4
:1044700035FE00200649087006E0002E04D0FEF745
:1044800097FE00200249087000E000BF00BFFEBD9B
:104490004401002014010020260100201E010020FC
:1044A0001C010020701400201801002020010020B1
:1044B00027010020F0B591B0064617461D4609A811
:1044C000C772012108A8817309AB0BAA023200212F
:1044D000304601F075FA84B208A88079002802D02D
:1044E000002011B0F0BD305DF021084010A9087027
:1044F0000878002801D00020F3E7A01C305C10A948
:104500004870305D08210840002804D0601D305CF0
:1045100010A9887003E0E01C305C10A9887001A924
:104520001798C87201216846817301AB002203A964
:104530000231284601F044FA84B2684680790028A6
:1045400001D00020CDE7285DF021084008A90870BF
:10455000087850283BD006DC002809D020281AD043
:10456000302843D120E060283AD070283ED138E08E
:10457000A01C285C08A94870285D08210840002874
:1045800004D0601D285C08A9887003E0E01C285C4A
:1045900008A988702CE0601C295C08A84170A01C48
:1045A000295C08A8817023E0601C285C08A9487079
:1045B000285D08210840002804D0201D285C08A997
:1045C000887003E0A01C285C08A9887010E0601CBB
:1045D000295C08A84170A01C295C08A8817007E02C
:1045E00000BF601C285C08A9487001E0002078E743
:1045F00000BF10A8417808A84078814201D000206F
:104600006FE708A8007860280BD008A80078702809
:1046100007D010A8817808A88078814201D00020B6
:104620005FE708A8017968460079814201D000203F
:1046300057E703A902310BA80230FFF780F80028E2
:1046400000D14EE701204CE70021002810D00122C4
:104650000270FF2242704A1E02810022827200BF55
:1046600004E0002302460B325354491C0729F8DBAF
:1046700070470000002101220270084A127842703F
:1046800000220281827200BF04E0002302460B3246
:104690005354491C0729F8DB70470000270100200C
:1046A00010B5044601234122D20008490848FEF70C
:1046B00027F802234122D20006490748FEF720F8D6
:1046C00001F0FEFFFEF774FD012010BD280E002052
:1046D00030100020481000205814002001480078B5
:1046E0007047000029010020014800787047000051
:1046F00028010020F8B504460D461646002000901B
:1047000000273D480068002803D13B4805603B482E
:1047100006803B480078FF2802D10120FEF7EAFC22
:1047200038480078002802D1FDF750FD0746002FD9
:104730001BD107E0FDF76EFA002001F083FF00288F
:1047400000D111E0304800788007C00F00280BD15D
:104750002D4800784007C00F002805D12A4800786E
:10476000C007C00F0028E5D000BF26480078002809
:1047700026D1002F24D122480078FF281BD02248C0
:1047800000784007C00F002815D01F48006804219A
:1047900088431D4908601D480078194909788842F6
:1047A0000ED1FEF7A1FC00280AD0FEF701FDFF2084
:1047B0001349087004E000BFFCF7ECFD0028FBD1B2
:1047C0000F480078FF2814D00F480078C006C00FAB
:1047D00000280ED00C480068102188430A49086060
:1047E0000B48008880B200900120207007480078B4
:1047F00060700098F8BD0000200100202401002016
:1048000027010020100100201401002026010020B3
:1048100018010020FFB581B005461E46002000901B
:1048200000271448FDF70DFF0446002C1ED0029807
:104830004078207000BF05E00398C15D201DC15580
:10484000781C87B2B742F7D36680002D05D0287850
:10485000002802D06878607001E0FF206070214677
:104860000448FDF702FF002800D00096009805B02C
:10487000F0BD00005814002000B502467F2A09DC74
:104880000748027007480078824207DD7F2000F069
:1048900013F803E0FF2A01D10148027000BD0000B7
:1048A0002701002028010020022801DB01490870AF
:1048B00070470000290100207F2809DC054909789C
:1048C000FF2903D003490978814201DC02490870BD
:1048D000704700002701002028010020F8B5054698
:1048E0000E46002401273046FFF703F8C7193B4660
:1048F00000220821284600F0B3F904462819314661
:1049000000F0E3F804192046F8BDF8B505460C465A
:1049100000260027002C00D001273B460022012161
:10492000284600F09DF906463046F8BDF8B5054624
:104930000E46002400273046FFF7F3F8471C3B469D
:1049400000220721284600F08BF90446E019FF21D8
:10495000E131884205DA2819314600F046F8041999
:1049600000E000242046F8BD70B505460E46002440
:104970003146681C00F068F80446234600220921ED
:10498000284600F06DF90419204670BD10B50446A4
:1049900000231A461946204600F062F910BDF8B50A
:1049A00005460E46174600243A463146681C00F07C
:1049B00053F80446234600220C21284600F050F903
:1049C00004192046F8BD70B505460E460024314650
:1049D000681C00F056F804462346002202212846AF
:1049E00000F03EF90419204670BDFEB505460C46A0
:1049F0002046FFF796F806462046FFF7C6F807461A
:104A00002046FFF744F83B460246FF21E13100967D
:104A10000190284600F001F8FEBDF0B504460D46B1
:104A20000120059E8019002C0CD0A8420AD82270C3
:104A3000002103E05E5C4F1CE655491C059EB14217
:104A4000F8D300E00020F0BD70B504460D462946BD
:104A5000204600F016F870BDFEB506460C46154619
:104A600000200190002700902746B805A902890A76
:104A7000084301903046019900F04FF900900098EA
:104A8000FEBD70B505460C460026FF2C02D82C70E2
:104A9000012618E001200004844205D2A1B2284674
:104AA00000F024F906460EE001200006844205D2FB
:104AB0002146284600F023F9064604E02146284610
:104AC00000F02BF90646304670BDF3B583B00446BE
:104AD000002500200290002700260498FEF706FF1C
:104AE000002804D1002228466D1C225422E004989C
:104AF000FEF7FFFE07460498FEF7F8FE791EC90090
:104B0000401AC0B2029008210298081AC2B2284680
:104B10006D1C225400260BE031460498FEF709FF75
:104B20000190FEF732FF29466D1C6054701CC6B21E
:104B3000BE42F1DB284605B0F0BD10B502460120AB
:104B4000082313700E2904DC13780C01234313701F
:104B500005E01378F024234313705170401C137840
:104B600007242343137010BDF8B506460F461446BC
:104B70000025FF2C01D801250CE00120000484420F
:104B800001D2022506E001200006844201D203255D
:104B900000E004252B4601223946304600F060F83B
:104BA000054670192146FFF74FFF45192846F8BD05
:104BB000FFB581B0054616461F4600240423012296
:104BC0002846029900F04CF8044628193A46314626
:104BD000FFF742FF0419204605B0F0BDF8B50646C0
:104BE0000F4614460025FF2C01D801250CE00120BA
:104BF0000004844201D2022506E00120000684421E
:104C000001D2032500E004252B4601223946304617
:104C100000F026F8054670192146FFF732FF4519C6
:104C20002846F8BD10B502460120082313700E294E
:104C300004DC13780C012343137005E01378F0248F
:104C4000234313705170401C1378062423431370C0
:104C500010BD03462020187059709A7003207047C9
:104C6000FFB581B004460F461E4601250020207086
:104C70000398002801D0082020700E2F04DC207833
:104C800039010843207005E02078F02108432070A6
:104C900067706D1C042E03D82078304320701FE00D
:104CA0002078052108432070FD2E03D828466D1C6E
:104CB000265415E00C48864209D8FE2228466D1C71
:104CC0002254B1B2601900F011F8451908E0FF2232
:104CD00029466D1C62546019314600F01EF84519D2
:104CE000284605B0F0BD0000FFFF00000246FF208F
:104CF00000020840001210705170022070470246F6
:104D0000FF2000040840000C1070FF200002084043
:104D1000000A50709170032070470246080E107010
:104D2000FF2000040840000C5070FF2000020840E3
:104D3000000A9070D170042070470000FFB5FFB0EA
:104D400084B016461C4600218291819100270025DF
:104D500001A8FFF78FFC0022114606A800F008FF0B
:104D600006AB01AA31462C4800F012FF0546207818
:104D7000002808D0217B284A501901230422FDF77E
:104D8000A9FE07463DE009A881AB82AA009084995C
:104D90008398FEF739FF0746002F08DA217B1E4A69
:104DA000501901230022FDF795FE074629E080A84F
:104DB0000079032807DB217B174A5019082201F0EC
:104DC0001CFA07461CE0154909A8FEF711FE002849
:104DD0000CD0217B104A50191122FFF73AFF0746E9
:104DE00080A801890079FEF773FF09E01A2000907E
:104DF000217B094A501904231122FEF786FC07463D
:104E000000BFED192B46044A06A93046FFF702FD04
:104E100007467FB008B0F0BDA80700204D00002075
:104E2000FFB595B01D46002600200D90471E441E7C
:104E30000120099000200890362010A9488203A87C
:104E4000FFF718FC002211460AA800F091FE0AABF9
:104E500003AA4548179900F09BFE044628780028CD
:104E600001D0B61E3FE00EAA1699159801F00FFA70
:104E70000646002E02DA0120099034E06846008FD1
:104E8000082806D139490F98884202D1FBF720FD46
:104E90000F90297B344A10190EAA01F0B9F9074680
:104EA000E019314940181290E019FF21FB31081A2E
:104EB00013900EA8FBF7E2FD0646002E12DBBF1989
:104EC000E119294A881801F0D6F90646BF19A868E1
:104ED000B84205DA362010A948820126F64301E0DF
:104EE0000020099000BF0998002832D0B01C00288B
:104EF0000ED110A9488AFDF7D2FDC0B20290297BDD
:104F0000194A10190123029AFDF7E4FD074620E033
:104F1000701C00280DD110A8408A009010A8038AA8
:104F2000297B114800190C220290FEF7EEFB074680
:104F30000FE0F01C00280CD110A9488A01F035F9C7
:104F4000C0B20290297B084A1019029A01F055F963
:104F50000746E0190D90044A0AA90D9B1798FFF720
:104F600059FC089019B0F0BDA8070020FFFF3F00D2
:104F7000FFB59DB0002400201C9000271B90002549
:104F800000260C9012A8FFF775FB0022114618A806
:104F900000F0EEFD18AB12AAB7481F9900F0F8FD1B
:104FA000064620980078002805D0362010A9C88031
:104FB000A01E0C9018E1209A117BAF4A901901F0C5
:104FC000D3F9054600BF1E9AD11B1D9AD0190DAA10
:104FD00001F04DFA0446002C02DB381987B201E0DB
:104FE0000C9401E16846808E082806D1A3490E98EA
:104FF000884202D1FBF76CFC0E900DA9A04801F08D
:10500000BEF90446FF20E13000909B4880192346FA
:105010002A469B490B9000F0B5FC80B21C901C986E
:10502000002806D1362010A9C8800120C0430C906A
:10503000DAE01C982D1800BF1E9AD11B1D9AD019BA
:105040000DAA01F04BFA0446002C01DA0C94CBE0D7
:10505000381987B20F98082805D00F98692802D010
:105060000F98502875D10020059004901098401C8E
:1050700000283CD08248109A0F9901F0A0F904460C
:10508000FF20E13000907C48801923462A467C4965
:10509000029000F077FC80B21C901C98002806D18A
:1050A000362010A9C8800120C0430C909CE02D1927
:1050B00032220221724801F09AF90446FF20E130C1
:1050C00000906D48801923462A466D49029000F0F1
:1050D00059FC80B21C901C98002806D1362010A9DB
:1050E000C8800120C0430C907EE02D192FE00F985E
:1050F00003906A46908E06AA0E99FBF779FC06A8E3
:105100000399FDF709FA0590059800281FD00020A3
:10511000049018E006A8049A0399FDF7C9F90F90C6
:10512000A9B2554880190DABFF22E1320290FDF77C
:1051300049F90446002C01DD2D1901E00C9453E0DF
:105140000498401C0490059904988842E2D310E02A
:10515000FFE7A9B2484880190DABFF22E1320B905E
:10516000FDF730F90446002C01DD2D1901E00C9407
:105170003AE01D99C8190121FEF709FE002800D167
:105180005AE7781C87B23E4801F00DF90446FF202B
:10519000E13000903848801923462A4638490B9060
:1051A00000F0F0FB80B21C901C98002806D136203D
:1051B00010A9C8800120C0430C9015E01C982D1840
:1051C00000BF00BF1E98874200DAFCE600BF00BFA8
:1051D00020988068A84206DA362010A9C8800120ED
:1051E000C0430C9000E000BF0C98002839D00C9808
:1051F000801C002810D110A9C888FDF750FCC0B24F
:105200000B902098017B1C48801901230A900B9A6F
:10521000FDF760FC054624E00C98401C00280ED1E8
:1052200010A8C088009010A883882098017B12489D
:1052300080190E220B90FEF768FA054611E00C98D3
:10524000C01C00280DD110A9C88800F0AEFFC0B264
:105250000B90209A117B084A90190B9A00F0CDFF11
:105260000546A8191B90044A18A91B9B1F98FFF715
:10527000D1FA179021B0F0BDA8070020FFFF3F0032
:10528000C8050020FFB5FFB084B016461C460027B5
:10529000002501A8FFF7EEF90022114606A800F04C
:1052A00067FC06AB01AA3146284800F071FC0546B0
:1052B0002078002808D0217B244A50190123042299
:1052C000FDF708FC074636E00AAB09AA84998398E3
:1052D00000F02EFF0746002F08DA217B1B4A5019E9
:1052E00001230022FDF7F6FB074624E008A8007919
:1052F000072807DB217B154A5019082200F07DFFA3
:10530000074617E009A8FBF7ADFD002807D0217B71
:105310000E4A50191422FFF79CFC07460AE080AAA7
:10532000508900901389217B084A50191422FEF7F6
:10533000ECF9074600BFED192B46044A06A9304692
:10534000FFF768FA07467FB008B0F0BDA807002055
:10535000F0B589B014461E460027002500200890AD
:105360006846FFF787F90022114605A800F000FC07
:1053700005AB6A4621460A4800F00AFC0546317B27
:10538000074A5019092200F038FF0746ED192B464D
:10539000034A05A92046FFF73DFA089009B0F0BD81
:1053A000A8070020F0B5FBB004460D4600260027F4
:1053B0006A462946204601F041FB0646002E19DDCB
:1053C0000098401C002803D00198401C002801D1FF
:1053D00001270AE0FBF77CFA0099884205D3FBF726
:1053E00077FA0199884200D80127002F02D0684639
:1053F00000F097FA7BB0F0BDFEB505460E461746A5
:1054000000240020019000906B4601AA31462846F6
:1054100001F092FB0446002C03D10A48FDF738FA4C
:105420000FE0601C00280CD0FBF752FA019988426B
:1054300007D3FBF74DFA0099884202D80148FDF7DF
:1054400027FAFEBDA8070020FFB5FFB08AB01646B8
:105450001C46002700250020069001A8FFF70AF946
:105460000022114607A800F083FB07AB01AA3146D2
:10547000224800F08DFB05462078002808D0217BCB
:105480001E4A501901230422FDF724FB074629E098
:105490000AAA8A99899801F0B5FB0746002F08DC13
:1054A000217B164A501901230022FDF713FB074602
:1054B00018E00AA8FBF778FD002807D0217B0F4AE7
:1054C00050190F22FFF7C5FB07460AE080AA108C8F
:1054D0000090D38B217B094A50190F22FEF715F952
:1054E000074600BFED192B46044A07A93046FFF7CF
:1054F00091F906907FB00EB0F0BD0000A807002023
:10550000FFB581B005460F4600260024002D1DD0B2
:105510001020287000206870022428193A460821BB
:10552000FFF73DFA0646A41928190399FFF74BFA2D
:105530000646A41928190499FFF716FA0646A41975
:1055400028190A99FFF73FFA0646A419204605B024
:10555000F0BDF0B589B006460F461446002008900D
:10556000002503A8FFF786F83846FFF76DF80022FC
:105570001146204600F0FCFA234603AA394630467D
:1055800000F006FB0546FBF70CFD0290FBF7A0F9C7
:1055900001900298009070190323FF22E1320199D3
:1055A000FFF7AEFF089008982D18284609B0F0BD07
:1055B000F8B504460D4600270026002C1BD0002D10
:1055C00019D0102020700120607002262988A019AF
:1055D0006A68FFF7E4F90746F6192989A019EA680D
:1055E000FFF7DDF90746F619A01929461031FFF734
:1055F0009DF90746F6193046F8BD0146002905D049
:10560000481E0840002801D1012070470020FCE717
:105610000C48008CC0B2012812D10A48808C0007C7
:10562000000F00280CD10748806AF021084040286C
:1056300006D10448C06A0840002801D10120704703
:105640000020FCE7C00F00F01948008CC0B2012810
:105650002CD11748808C0007000F002826D1144851
:10566000806AF0210840002806D11148C06A08402D
:10567000002801D1012070470D48806AF0210840C0
:10568000102806D10A48C06A0840002801D101202C
:10569000F1E70748806AF0210840302806D1044825
:1056A000C06A0840002801D10120E4E70020E2E7B9
:1056B000C00F00F01348008CC0B201281FD1114860
:1056C000808C0007000F002819D10E48806AF02155
:1056D0000840A02806D10B48C06A0840002801D124
:1056E000012070470748806AF0210840D02806D181
:1056F0000448C06A0840002801D10120F1E70020D9
:10570000EFE70000C00F00F001460868002801D054
:1057100002680A607047026803E08A4200D170475D
:105720001268002AF9D10368002B01D0036800E059
:1057300000230B60016000BFF1E710B5082000F006
:1057400093FC092000F090FC0A2000F08DFC0B2057
:1057500000F08AFC00F088F800F040F800F00EF845
:1057600000F027F810BD000010B50A2000F098FCEA
:1057700000200149087010BD5A01002010B50A2010
:1057800000F09AFC01200149087010BD5A01002068
:1057900001480078704700005A01002010B5FFF75B
:1057A000F7FF002802D0FFF7DFFF01E0FFF7E6FF79
:1057B00010BD10B50B2000F07FFC10BD10B5092006
:1057C00000F06EFC034801F0DEF80020024908708A
:1057D00010BD0000480100205801002010B509202C
:1057E00000F06AFC034801F0CEF80120024908707D
:1057F00010BD0000480100205801002010B50446EB
:10580000FFF7ECFF2146024801F0C9F810BD000087
:105810004801002010B50A4801F0A1F8002804D082
:10582000074801F0B0F8FFF7C9FF064801F097F804
:10583000002804D0034801F0A6F800F005F810BDD8
:10584000480100205001002010B5082000F028FC7D
:10585000034801F098F800200249087010BD0000CC
:10586000500100205901002010B5082000F024FC50
:10587000034801F088F801200249087010BD0000BB
:10588000500100205901002010B50446FFF7ECFF3D
:105890002146024801F083F810BD000050010020AD
:1058A00070B500F07FFA044600BF2546002D04D0F5
:1058B00000BF2846FDF796FB00BF00BF002000F0A8
:1058C000A3FA70BD10B5FF20053000F052FA022097
:1058D00000F05CFA082000F05FFA10BD0EB502205F
:1058E00000231A46194600901846FCF759FF01F0AC
:1058F00008F8FFF722FFFDF769FF7D2101A801F0FD
:105900004EF80DE001A801F02AF8002804D001A803
:1059100001F03EF8FFF742FFFFF77CFFFDF79EFF27
:10592000F0E770B5FAB00446002079907890002531
:10593000207A002814D078AA79A920460C30FBF7E9
:10594000EDFA0546002D1BD0FAF7C2FF06467998FE
:1059500081B223460C333046789AFCF7ADFF0FE056
:10596000A0896A462169FBF717F80546002D07D084
:10597000FAF7AEFF0646A1896B462269FCF79CFF49
:105980007AB070BDF8B506460F4614461D462A4645
:105990002046069900F00BF8002806D030192A4658
:1059A0003946FAF7EFFB2846F8BD0020FCE703462E
:1059B0009818884201D8012070470020FCE70000B9
:1059C000FFB585B004461D4600260027002104913E
:1059D0000391002002900190002C7AD0002DFCD081
:1059E00020782870607880210840C009A87060780D
:1059F000042108408008687060788007800FE87094
:105A0000022660782021084000282FD0A01903A981
:105A1000FEF715FB86193046761C205C029006982E
:105A2000002806D068468189069801810699029867
:105A30008872029800282BD00298072803DD0020E6
:105A4000C04309B0F0BD00270CE03046761C205C56
:105A500001900698002803D006980B300199C15593
:105A6000781CC7B202988742EFDB11E00698002845
:105A70000ED000210698018106988172002705E06A
:105A8000002106980B30C155781CC7B2072FF7DBF1
:105A900060780821084000282FD0A01904A9FEF73B
:105AA000CEFA86193046761C205C029007980028B2
:105AB00006D06846018A0798018107990298887282
:105AC0000298002831D00298072803DD0020C04347
:105AD000B7E744E000270CE03046761C205C0190DC
